:100000000C9466000C948E000C948E000C948E0060
:100010000C948E000C948E000C948E000C948E0028
:100020000C948E000C948E000C948E000C948E0018
:100030000C948E000C948E000C948E000C948E0008
:100040000C94D61D0C948E000C9459180C943318F3
:100050000C948E000C948E000C948E000C948E00E8
:100060000C948E000C948E00000000080002010029
:100070000003040700000000000000007C3C3E5E1E
:100080002B3D3F2F5B5D3B2C2A225C0000000000D3
:10009000250028002B0000000000240027002A0073
:1000A000040404040404040402020202020203031E
:1000B0000303030301020408102040800102040826
:1000C00010200102040810203322232211241FBE15
:1000D000CFEFD8E0DEBFCDBF12E0A0E0B1E0EAEFA5
:1000E000FBE402C005900D92A238B107D9F725E0D4
:1000F000A2E8B2E001C01D92A63FB207E1F710E00E
:10010000C5E6D0E004C02197FE010E949F23C436BB
:10011000D107C9F70E94201E0C94F0250C94000012
:100120002A9A08952A980895DC015996ED91FC9138
:100130005A973097B9F083899489A589B689428501
:10014000538564857585841B950BA60BB70B8115AC
:1001500020E89207A105B10538F08FEF9FE7A0E0F6
:10016000B0E0089580E090E00895CF93DF931F9270
:10017000CDB7DEB76983DC01ED91FC910280F3819C
:10018000E02D41E050E0BE016F5F7F4F09950F9079
:10019000DF91CF910895FC01818D928D009711F030
:1001A0000C94C20D0895FC01818D928D009711F081
:1001B0000C94FF108FEF9FEF08950F931F93CF9331
:1001C000DF93FC01818D928D0097B9F0EF010E94C1
:1001D000FF108C010F3F8FEF180791F0898D9A8DDA
:1001E000FC0142855385648575854150510961093B
:1001F00071090E94000EC80105C080E090E002C0B5
:100200008FEF9FEFDF91CF911F910F910895CF93C3
:10021000DF93EC01898D9A8D009739F481E090E0AD
:100220009B838A8380E090E00BC0FC0113821282E2
:100230000E947412E98DFA8D22813381232B71F78C
:10024000DF91CF910895CF93DF931F92CDB7DEB7A3
:10025000698341E050E0BE016F5F7F4F0E947412DE
:100260000F90DF91CF910895CF92DF92EF92FF929E
:100270000F931F93CF93DF93EC017A018B016C01F5
:10028000C40ED51ECC15DD05A9F00E9492008FE0AA
:100290000E94B10F8D2F0E94B10F8C2F0E94B10FC1
:1002A000219680E00E94B10FF80181938F010E9496
:1002B0009000E8CFC701DF91CF911F910F91FF9080
:1002C000EF90DF90CF900895CF92DF92EF92FF9260
:1002D0000F931F93CF93DF93EC017A018B016C0195
:1002E000C40ED51ECC15DD05A1F00E94920080EF52
:1002F0000E94B10F8D2F0E94B10F8C2F0E94B10F61
:100300002196F80181918F010E94B10F0E94900007
:10031000E9CFC701DF91CF911F910F91FF90EF902F
:10032000DF90CF9008951F93CF93DF9300D0CDB788
:10033000DEB7182F6A8399830E94920080EF0E9493
:10034000B10F9981892F0E94B10F812F0E94B10FA7
:100350006A81862F0E94B10F0E94900081E00F9069
:100360000F90DF91CF911F9108951F93CF93DF934B
:1003700000D0CDB7DEB7182F80E590E069837A838F
:100380000E94F00F21E041E050E069817A81812FE5
:100390000E945E1B0E94A50F81E090E00F900F90DD
:1003A000DF91CF911F9108959B0190E00496982FC3
:1003B0008827642F820F931F0C949301CF93C82F2B
:1003C00080E590E00E94F00F60E170E08C2F0E94C9
:1003D000D91C4FEF62E070E08C2F0E94D401CF91C6
:1003E0000C94A50FFF920F931F93CF93DF9300D030
:1003F000CDB7DEB7F82E8A012A8369830E94DE0119
:1004000080E590E00E94F00F2A816981462F422BFF
:1004100060E070E08F2D0E94D4010115110551F4A8
:1004200000919402109195020F5F1F4F1093950257
:1004300000939402412F64E070E08F2D0E94D4015C
:10044000402F65E070E08F2D0E94D40161E070E0E4
:100450008F2D0E94D91C0E94A50F81E00F900F9054
:10046000DF91CF911F910F91FF9008950F931F93EC
:10047000CF93DF931F92CDB7DEB790E00496982F0D
:1004800088278C01060F171F0E9492008FE00E94A0
:10049000B10F812F0E94B10F802F0E94B10F80E019
:1004A0000E94B10F89830E94900089810F90DF9193
:1004B000CF911F910F9108951F93CF93DF93182F22
:1004C00066E270E00E943602C82FD0E067E270E07A
:1004D000812F0E943602DC2FCC279E01282BC901D8
:1004E000DF91CF911F910895FF920F931F93CF93A8
:1004F000DF93F82E80E590E00E94F00FC0E0D0E09E
:100500008F2D0E945C028C01892B21F08F2D0E947F
:100510005C02EC01C017D10799F70E94A50FCE012C
:10052000DF91CF911F910F91FF9008951F93CF936B
:10053000DF93182F60E270E00E943602C82FD0E0EF
:1005400061E270E0812F0E943602DC2FCC279E01F1
:10055000282BC901DF91CF911F910895AF92BF92CF
:10056000CF92DF92EF92FF921F93CF93DF93182FDA
:100570005B017A0180E590E00E94F00FC0E0D0E0DE
:10058000812F0E945C026C01892B21F0812F0E9437
:100590005C02EC01CC15DD0599F7209799F463E036
:1005A00070E0812F0E9436028431F1F08823E1F05F
:1005B000C1E0D0E08C3111F4C0E0D0E0D195C1951C
:1005C000D10912C0EC16FD060CF4E7011C161D063D
:1005D0005CF420E0AE01B501812F0E945E1B60E457
:1005E00070E0812F0E94D91C0E94A50FCE01DF91DF
:1005F000CF911F91FF90EF90DF90CF90BF90AF9081
:1006000008951F93CF93DF931F92CDB7DEB7182FB6
:1006100080E590E00E94F00F63E070E0812F0E947F
:10062000360289830E94A50F89810F90DF91CF91B7
:100630001F910895CF93DF93C82FD62F472F60E1E6
:1006400070E00E94D4014D2F61E170E08C2FDF91AA
:10065000CF910C94D40190E0982F882744E050E08B
:10066000845F9B4F0C946401FC01DB0112968D9119
:100670009C911397938382838EEE91E09183808384
:1006800014968C911497848315968C911597858375
:1006900016964D915D916D917C9119974683578384
:1006A000608771871A964D915D916D917C911D9730
:1006B00042875387648775871E964D915D916D9132
:1006C0007C91519746875787608B718B52968C919E
:1006D0005297828B53964D915D916D917C91569777
:1006E000438B548B658B768B57964D915D916D91B5
:1006F0007C915A97478B508F618F728F5B968D914B
:100700009C915C97948F838F0895EF92FF920F9343
:100710001F93CF93DF93EC017B018A011B821A8226
:1007200088EE93E0A0E0B0E08C839D83AE83BF832E
:1007300082E691E0998388838DE190E00E94A52371
:100740009A8F898F009779F02DE1F701DC010190F4
:100750000D922A95E1F74CE050E0B801CE010C96DD
:100760000E94C725188EDF91CF911F910F91FF90A6
:10077000EF9008958091A0028823A9F140910A0189
:1007800050910B0160910C0170910D0121EA32E052
:100790008091A1049091A2040E940912811102C0CB
:1007A00080E00895409190025091910260919202F0
:1007B00070919302411551056105710591F021EA8F
:1007C00032E08091A1049091A2040E940912882332
:1007D00039F31092900210929102109292021092AC
:1007E00093021092A00281E008958F929F92AF929F
:1007F000BF92EF92FF920F931F93CF934B015C0137
:10080000C42F80910A0190910B01A0910C01B0912D
:100810000D0188159905AA05BB0501F10E94BA03CF
:10082000811102C080E020C081EAE82E82E0F82E2B
:1008300000E012E020E030E0B501A4018091A104C5
:100840009091A2040E946B10882361F380920A01A8
:1008500090920B01A0920C01B0920D018091A00228
:10086000C82BC093A00281E0CF911F910F91FF9000
:10087000EF90BF90AF909F908F9008954F925F92AE
:100880006F927F928F929F92AF92BF92CF92DF92A0
:10089000EF92FF920F931F93CF93DF93EC016A01C6
:1008A0007B0128013901423051056105710510F4C1
:1008B00080E073C089859A85AB85BC850196A11DB2
:1008C000B11D84179507A607B70790F38B889C88FE
:1008D000AD88BE888F89803129F4BB27AF2D9E2D2E
:1008E0008D2D09C0DB01CA0147E0B695A795979504
:1008F00087954A95D1F7880E991EAA1EBB1E809136
:100900000A0190910B01A0910C01B0910D01881684
:100910009906AA06BB0679F48F898031A1F4DD24FB
:10092000EE24FF24C601880F991FFC01EF55FD4FEF
:100930005182408219C040E0C501B4010E94F50314
:100940008111EACFB5CFE894C7F8DD24EE24FF2467
:10095000C601880F991F880F991FFC01EF55FD4FA5
:1009600040825182628273828091A0028160809372
:10097000A0028A89823080F08D819E81AF81B88506
:10098000880E991EAA1EBB1E809290029092910220
:10099000A0929202B092930281E0DF91CF911F91D9
:1009A0000F91FF90EF90DF90CF90BF90AF909F900E
:1009B0008F907F906F905F904F9008958F929F924D
:1009C000AF92BF92CF92DF92EF92FF920F931F935D
:1009D000CF93DF93FC0181859285A385B485019631
:1009E000A11DB11D84179507A607B70710F480E075
:1009F0005CC083899489A589B689C789C03129F4E7
:100A0000852E962EA72EBB2409C04A015B01C7E0A4
:100A1000B694A79497948794CA95D1F7E9016A018F
:100A20007B018F01BC01CD01680D791D8A1D9B1DC5
:100A300080900A0190900B01A0900C01B0900D01E4
:100A4000681579058A059B0599F4F8018789803135
:100A5000A9F4B701A601552766277727440F551F2C
:100A6000FA01EF55FD4F80819181A0E0B0E018C000
:100A700040E00E94F5038111E8CFB9CFB701A6018C
:100A80004F77552766277727440F551F440F551F6B
:100A9000FA01EF55FD4F80819181A281B381BF7032
:100AA00088839983AA83BB8381E0DF91CF911F91D3
:100AB0000F91FF90EF90DF90CF90BF90AF909F90FD
:100AC0008F9008954F925F926F927F92AF92BF92F4
:100AD000CF92DF92EF92FF920F931F93CF93DF930A
:100AE00000D000D0CDB7DEB78C0149835A836B8329
:100AF0007C835901C12CD12C7601412C82E0582EE7
:100B0000612C712C49815A816B817C819E012F5F00
:100B10003F4FC8010E94DE04882351F1D301C20176
:100B2000F801058404C0880F991FAA1FBB1F0A94EF
:100B3000D2F7C80ED91EEA1EFB1E49815A816B816D
:100B40007C818789803129F088EF9FEFAFEFBFE08C
:100B500004C088EF9FEFA0E0B0E0481759076A078C
:100B60007B0780F2F501C082D182E282F38281E0CC
:100B70000F900F900F900F90DF91CF911F910F91D9
:100B8000FF90EF90DF90CF90BF90AF907F906F90ED
:100B90005F904F900895CF93DF931F92CDB7DEB74C
:100BA0006983DC01ED91FC910280F381E02D41E04D
:100BB00050E0BE016F5F7F4F09950F90DF91CF919D
:100BC0000895FC01818D928D0895FC018489958999
:100BD000089524E132E0FC0131832083FB01408948
:100BE000518962897389FC014283538364837583CD
:100BF0000895DC01ED91FC91048CF58DE02D0994B4
:100C000080E00895CF93DF931F92CDB7DEB769835D
:100C1000DC01ED91FC910280F381E02D41E050E098
:100C2000BE016F5F7F4F09950F90DF91CF910895BF
:100C3000FC019485FB018485981303C081E0943006
:100C400009F480E0089521E0FC018485843009F4F2
:100C500020E0822F08950895AF92BF92CF92DF9245
:100C6000FF920F931F93CF93DF938C015B01EA01F7
:100C7000FC01C688D788F08C80E590E00E94F00FD8
:100C80008F2D0E942B1C8C179D0720F48F2D0E9406
:100C90002B1CEC019E01A501B6018F2D0E94C61BE5
:100CA0000E94A50FF801868997898C0F9D1F978B4D
:100CB000868BCE01DF91CF911F910F91FF90DF9036
:100CC000CF90BF90AF900895CF93FC01C08D80E589
:100CD00090E00E94F00F60E270E08C2F0E94D91C1F
:100CE00062E070E08C2F0E94360284FD19C062E041
:100CF00070E08C2F0E94360283FF0BC048E162E057
:100D000070E08C2F0E94D4010E94A50F80E090E03B
:100D100011C00E94A50F80E590E00E94F00FE0CF87
:100D200040E162E070E08C2F0E94D4010E94A50F88
:100D300081E090E0CF910895FF920F931F93CF939E
:100D4000DF93FB01DC0157961C921E925697589632
:100D5000FC908281811109C08381811106C0848148
:100D6000811103C085818823C1F041155105A9F087
:100D70008A01EF0180E590E00E94F00FBE016E5FF6
:100D80007F4F8F2D0E942B03B8018F2D0E941A03D5
:100D90000E94A50F81E090E002C080E090E0DF912A
:100DA000CF911F910F91FF900895CF92DF92EF9214
:100DB000FF920F931F93CF93DF93CDB7DEB7AF971B
:100DC0000FB6F894DEBF0FBECDBF7C016A0104E10F
:100DD00012E01A8309831C861B8688EE93E0A0E04C
:100DE000B0E08D879E87AF87B88B8CE991E09A87BA
:100DF0008987188F0F8B198E1A8E1B8E1C8E84E09C
:100E000089A31DA30CA31EA21FA218A619A6809138
:100E1000520590915305A0915405B09155058CA7AA
:100E20009DA7AEA7BFA78B839C83AD83BE83188687
:100E30001F82AE014C5D5F4FCE0101960E94D00A29
:100E400081309105B1F4D701ED91FC910488F589C9
:100E5000E02D1BA70AA78EA19FA1A8A5B9A58CA7C5
:100E60009DA7AEA7BFA7A601BE01665D7F4FC701C4
:100E70000995AF960FB6F894DEBF0FBECDBFDF91D8
:100E8000CF911F910F91FF90EF90DF90CF90089539
:100E9000CF93DF93EC01888D843061F00E94DE01F6
:100EA000E88DF0E0EE0FFF1FEE57FD4F118210822C
:100EB00084E0888FDF91CF910895EF92FF921F9386
:100EC000CF93DF93FC01208D243011F080E01CC013
:100ED0007B01EC0110E0812F0E940103811102C00F
:100EE000188F05C08831E1F31F5F1430A1F7888D9A
:100EF000843061F3FD86EC861A8E198E20E0A701FE
:100F000062E00E94F20181E0DF91CF911F91FF909A
:100F1000EF9008950F931F93CF93DF931F92CDB758
:100F2000DEB78C01DC01ED91FC910084F185E02DB0
:100F30000995892B51F0BE016F5F7F4FF8018485C1
:100F40000E94B501898190E002C08FEF9FEF0F9062
:100F5000DF91CF911F910F910895FC0184850C942E
:100F6000AE02CF93DF931F92CDB7DEB741E050E0E2
:100F7000BE016F5F7F4FFC0184850E94AE02181690
:100F800019061CF4898190E002C08FEF9FEF0F904B
:100F9000DF91CF910895FC018485843011F00C9489
:100FA000740280E090E00895FC018485843011F0A3
:100FB0000C94010380E008958F929F92AF92BF92AC
:100FC000CF92DF92EF92FF920F931F93CF93DF9315
:100FD000CDB7DEB72D970FB6F894DEBF0FBECDBFED
:100FE0007C0100E010E038EE832E33E0932EA12C3C
:100FF000B12C4CE3C42E41E0D42E1C821B828D8286
:101000009E82AF82B886DA82C9820D87CE010196B0
:101010000E94D407811125C0F7014481558120E049
:1010200061E0802F0E94F20180E590E00E94F00FC5
:1010300063E070E0802F0E943602833129F462E081
:1010400070E0802F0E94D91C0E94A50FF7018481B7
:101050009581000F111FF801EE57FD4F918380839A
:1010600005C00F5F1F4F0430110539F62D960FB6DE
:10107000F894DEBF0FBECDBFDF91CF911F910F91CE
:10108000FF90EF90DF90CF90BF90AF909F908F90A8
:101090000895CF93DF93FC0124852430D1F0EC0137
:1010A0000E94D407843181F0882371F0883161F087
:1010B0008C3161F4E881F9810084F185E02DCE0165
:1010C000099521E0892B19F420E001C021E0822F4D
:1010D00001C080E0DF91CF910895CF92DF92EF922F
:1010E000FF921F93CF93DF93FC0114851430A9F175
:1010F000EC0180E590E00E94F00F68E070E0812F45
:101100000E94D91C0E94A50F0E94CD1C6B017C017E
:10111000CE010E94D4078823B1F061E070E080E046
:1011200090E00E94931C0E94CD1CDC01CB018C1925
:101130009D09AE09BF09883E9340A105B10540F362
:101140008C850E94DE01EC85F0E0EE0FFF1FEE576C
:10115000FD4F1182108284E08C87DF91CF911F9127
:10116000FF90EF90DF90CF9008954F925F926F9233
:101170007F928F929F92AF92BF92CF92DF92EF9227
:10118000FF921F93CF93DF93CDB7DEB72D970FB6A6
:10119000F894DEBF0FBECDBF7C0192E8A92E92E08D
:1011A000B92E10E0C12CD12C28EE422E23E0522E75
:1011B000612C712C3CE3832E31E0932E1C821B8228
:1011C0004D825E826F8278869A8289821D87D501E0
:1011D0002D913D915D01F701848195812817390793
:1011E000B1F4CE0101960E94D407843169F0CE019A
:1011F00001960E94D4078C3151F4CE0101960E94D1
:10120000CB07892B91F003C0CC24C394D12C1F5F52
:101210001430A1F6CD2871F4D701ED91FC91008432
:10122000F185E02DC701099505C0CE0101960E9408
:101230006D08EDCF2D960FB6F894DEBF0FBECDBF73
:10124000DF91CF911F91FF90EF90DF90CF90BF90F3
:10125000AF909F908F907F906F905F904F90089588
:101260002F923F924F925F926F927F928F929F92B6
:10127000AF92BF92CF92DF92EF92FF920F931F93A4
:10128000CF93DF93CDB7DEB72E970FB6F894DEBFBE
:101290000FBECDBF7C016B015A010E94B50802E868
:1012A00012E020E0612C712C88EE282E83E0382E8D
:1012B000412C512C9CE3892E91E0992E1C821B829B
:1012C0002D823E824F8258869A8289822D87F8012C
:1012D000419151918F01F7018481958148175907F8
:1012E00041F4CE0101962E870E94D4072E858731C6
:1012F000E9F02F5F243011F7C3012E960FB6F89452
:10130000DEBF0FBECDBFDF91CF911F910F91FF9038
:10131000EF90DF90CF90BF90AF909F908F907F9095
:101320006F905F904F903F902F900895A501B60168
:10133000CE0101962E870E94C609680E791E2E8561
:10134000D8CFCF93DF931F92CDB7DEB76983DC018F
:10135000ED91FC910280F381E02D41E050E0BE016F
:101360006F5F7F4F09950F90DF91CF910895DC015A
:10137000ED91FC91068CF78DE02D099591E0892780
:101380000895862F089581E0862708958F929F9271
:10139000AF92BF92CF92DF92EF92FF920F931F9383
:1013A000CF93DF936C015B017A01FC01C485C430EB
:1013B00041F481E090E0F6019383828380E090E045
:1013C00057C08A014130584010F000E018E080E535
:1013D00090E00E94F00F8C2F0E942B1C4C0163E0C8
:1013E00070E08C2F0E943602D82F0E94A50FD731B3
:1013F00011F0DC3121F48016910648F302C000E0C0
:1014000010E080E590E00E94F00F9801A50160E0F7
:1014100070E08C2F0E94C61B60E270E08C2F0E944F
:10142000D91C62E070E08C2F0E94360284FD14C04B
:1014300063E070E08C2F0E943602811106C00E948A
:10144000A50F8C2F0E94DE01B4CF0E94A50F80E56E
:1014500090E00E94F00FE5CF40E162E070E08C2F59
:101460000E94D4010E94A50F012B09F4A2CFC7014D
:10147000DF91CF911F910F91FF90EF90DF90CF9070
:10148000BF90AF909F908F900895CF92DF92FF9280
:101490000F931F93CF93DF93FC012485243009F031
:1014A00072C06A01EB018C01F12C8F2D0E940103A7
:1014B000811103C0F801F48607C08B7F8831D1F316
:1014C000F394F4E0FF12F1CFF8018485843009F43D
:1014D0005AC020910801309109012F5F3F4F11F44C
:1014E00020E030EC3093090120930801409108017D
:1014F0005091090120E061E00E94F201F801F484BA
:101500008A818F3F51F48B818F3F91F48C818F3F83
:1015100079F48D818F3F61F433C0811109C08B81D3
:10152000811106C08C81811103C08D81882341F116
:10153000C114D10429F180E590E00E94F00FBE01B2
:101540006E5F7F4F8F2D0E942B03B6018F2D0E945F
:101550001A0364E070E08F2D0E94D91C0E94A50F31
:10156000C8010E94D407873189F061E070E080E013
:1015700090E00E94931CC8010E94D4078111F0CF13
:1015800084E0F801848780E090E002C081E090E090
:10159000DF91CF911F910F91FF90DF90CF90089531
:1015A0002F923F924F925F926F927F928F929F9273
:1015B000AF92BF92CF92DF92EF92FF920F931F9361
:1015C000CF93DF93CDB7DEB765970FB6F894DEBF44
:1015D0000FBECDBF7C016B013A01FB0120E080E032
:1015E00090E06AE03191332309F140ED430F4A3036
:1015F00080F4689FA001699F500D1124CA01C09713
:10160000830F911D37FD9A958F3F910559F350F344
:1016100013C03E3289F4233079F0D301A20FB11DFB
:1016200012968C932F5F80E090E0DCCF233021F482
:10163000F301858381E021C0F701428153816481F8
:10164000758180915A0590915B05A0915C05B091E0
:101650005D05481759076A077B0709F49EC10E9478
:10166000CD1C8701085F1F4F6F7077277C5FC80113
:101670000E945D07813019F080E090E0F3C184E1C1
:1016800092E09A838983F70182819381A481B58155
:101690008B839C83AD83BE8345E350E0BE016F5FC7
:1016A0007F4FC8010E949C06892B19F4C12CD12CB4
:1016B0006FC10E94CD1CF701778366837627672769
:1016C00076277A83698342E050E0BE016F5F7F4FE7
:1016D000C8010E942C0681E090E09E878D8742E041
:1016E00050E0BE01635F7F4FC8010E942C0680E07E
:1016F00091E09E878D8742E050E0BE01635F7F4F9F
:10170000C8010E942C061E861D8642E050E0BE01E4
:10171000635F7F4FC8010E942C0642E050E0BE018B
:10172000635F7F4FC8010E942C0642E050E0BE017B
:10173000635F7F4FC8010E942C065601F50180812E
:10174000882311F1F6015F018191811115C04501D6
:101750008C189D081814190494F48F8641E050E009
:10176000BE01615F7F4FC8010E942C06A401B60133
:10177000C8010E942C0603C08E3229F7E8CF65010C
:10178000FFEFCF1ADF0ADACF1F8641E050E0BE013B
:10179000615F7F4FC8010E942C06C12CDD24D394C9
:1017A000DE86CD8642E050E0BE01635F7F4FC80118
:1017B0000E942C06DE86CD8642E050E0BE01635FCB
:1017C0007F4FC8010E942C06C8010E946406892B25
:1017D00009F46CCF63E0A62EB12CF2E06F0E711C01
:1017E0000E94CD1C1B012C01C8010E941216181664
:1017F0001906A4F00E94CD1CDC01CB0182199309CB
:10180000A409B50989389341A105B105D0F462E373
:1018100070E080E090E00E94931CE6CFF7014281E7
:10182000538164817581808D918DA28DB38D481710
:1018300059076A077B0741F4848D958DC59721F47C
:1018400006C02FEF3FEF9AC02EEF3FEF97C0F70192
:1018500081A192A10C970CF4A6C04CE050E0BE010F
:101860006F5F7F4FC8010E94CA158B8190E0982F4F
:1018700088272C81822B9A8B898B298130E0322F0B
:1018800022274A81242BF7014681578142175307AB
:1018900009F086C097FF84C08F709270892B09F081
:1018A000DEC0CF80D12CDC2CCC248885C82AC11482
:1018B000D10409F4D1C0812C912C8D8190E0982F16
:1018C00088272E81822B8816990608F46FC0812CF8
:1018D000912C41E050E0BE016D5E7F4FC8010E9437
:1018E000CA158B89982F907C09F093C0811186C00E
:1018F0008B898111EECF42E050E0BE01615F7F4FE6
:10190000C8010E94CA1542E050E0BE01635F7F4FEC
:10191000C8010E94CA15C8010E94E915C8010E94A9
:10192000E915C8010E94E915C8010E94E91542E0C5
:1019300050E0BE016F5E7F4FC8010E94CA158F85BF
:1019400098898115914009F069C02D853E8532271F
:10195000232732272130310509F060C089899A890F
:101960008115944009F075C044E050E0B301C8010E
:101970002C8B3D8B0E94CA152C893D896901F1E0B1
:10198000AF1AB10829F02FEFC216D20609F428CFFA
:10199000C8010E944807C60165C08EEF9FEF62C074
:1019A0002CEF3FEFEBCF2DEF3FEFE8CF41E050E0E2
:1019B000BE01635F7F4FC8010E94CA158D858111EA
:1019C00013C08D858111F2CFC8010E94E915C801AD
:1019D0000E94E915C8010E94E915C8010E94E91595
:1019E000FFEF8F1A9F0A69CF8D859FEF980F9D8714
:1019F000882339F3C8010E94E915F6CF8B899FEF40
:101A0000980F9B8B882309F473CFC8010E94E915B6
:101A1000F5CFC8010E94E9151B8A6ACF412C512CD1
:101A200089899A899827892798274816590638F46A
:101A3000C8010E94E9158FEF481A580AF1CFEFEF5D
:101A40008E1A9E0A8C149D0409F043CF26EF3FEFB7
:101A500095CF27EF3FEF92CF2AEF3FEF8FCF2BEFBE
:101A60003FEF8CCF65960FB6F894DEBF0FBECDBFAB
:101A7000DF91CF911F910F91FF90EF90DF90CF906A
:101A8000BF90AF909F908F907F906F905F904F909E
:101A90003F902F900895CF92DF92EF92FF920F9395
:101AA0001F93CF93DF93CDB7DEB7AF970FB6F89400
:101AB000DEBF0FBECDBF7C016A0104E112E01A83D4
:101AC00009831C861B8688EE93E0A0E0B0E08D873A
:101AD0009E87AF87B88B8CE991E09A878987188FAA
:101AE0000F8B198E1A8E1B8E1C8E84E089A31DA36A
:101AF0000CA31EA21FA218A619A6809152059091B0
:101B00005305A0915405B09155058CA79DA7AEA78C
:101B1000BFA78B839C83AD83BE8318861F82AE01D3
:101B20004C5D5F4FCE0101960E94D00A8130910535
:101B3000B1F4D701ED91FC910684F785E02D1BA748
:101B40000AA78EA19FA1A8A5B9A58CA79DA7AEA7FE
:101B5000BFA7A601BE01665D7F4FC7010995AF967D
:101B60000FB6F894DEBF0FBECDBFDF91CF911F91AE
:101B70000F91FF90EF90DF90CF900895089580E04F
:101B800090E00895CF93DF93EC018D818823A1F13C
:101B90008C8187FF2DC06E857F858889998941E07A
:101BA0000E94F503882341F1EA8980E2E89FF00171
:101BB0001124DF01AF55BD4F1097F1F08D818230B8
:101BC00050F44B895C896D897E895C964D935D9359
:101BD0006D937C935F978F89988DA98DBA8DEF5502
:101BE000FD4F938F828FB58BA48B8C818F778C83E5
:101BF000DF91CF910C94BA0380E0DF91CF910895EB
:101C00008F929F92AF92BF92CF92DF92EF92FF920C
:101C10000F931F93CF93DF93EC018D81811102C04D
:101C200080E077C00B891C892D893E890417150730
:101C300026073707A8F36A017B01823029F4CA8698
:101C4000DB86EC86FD860DC0C114D104E104F104ED
:101C500051F41E821F82188619861A861B861C86DE
:101C60001D8681E056C08A849B84AC84BD84EB8D44
:101C7000FC8D258530E0275F3F4FB501A401415021
:101C8000510961097109022E04C07695679557952F
:101C900047950A94D2F7D701C6010197A109B10966
:101CA00004C0B695A795979587952A95D2F784177E
:101CB0009507A607B70720F089288A288B2849F4BA
:101CC0004F89588D698D7A8D4E835F8368877987B8
:101CD00004C0841B950BA60BB70B4C015D018E0154
:101CE0000A5F1F4F81149104A104B10409F4A7CF26
:101CF0004E815F816885798598018B8D9C8D0E94CE
:101D0000DE0491E0891A9108A108B1088111EACF97
:101D100087CFDF91CF911F910F91FF90EF90DF90D0
:101D2000CF90BF90AF909F908F900895CF93DF9307
:101D3000EC010E94C20D882311F01D8281E0DF9129
:101D4000CF9108953F924F925F926F927F928F92C0
:101D50009F92AF92BF92CF92DF92EF92FF920F933A
:101D60001F93CF93DF93CDB7DEB72C970FB6F894C0
:101D7000DEBF0FBECDBF5C01DC015B968D909C90F9
:101D80005C971696CD90DD90ED90FC901997C1145C
:101D9000D104E104F10439F0BFEFCB1ADB0AEB0AFE
:101DA000FB0A312C07C0F401C080D180E280F380AF
:101DB00033243394F40181859285A385B4859C01F5
:101DC000AD012F5F3F4F4F4F5F4F29873A874B87BA
:101DD0005C87260137011D821E821F821886F4014E
:101DE00081859285A385B4852D813E814F8158855B
:101DF000281739074A075B0708F063C089859A8569
:101E0000AB85BC858C159D05AE05BF0550F482E001
:101E1000C82ED12CE12CF12C92E0492E512C612CB2
:101E2000712C9E012F5F3F4FB701A601C4010E9494
:101E3000DE04882309F445C089819A81AB81BC8185
:101E4000892B8A2B8B2B41F0260137019FEF491AF2
:101E5000590A690A790A05C0C414D504E604F704CE
:101E600091F02D813E814F8158852F5F3F4F4F4F1D
:101E70005F4F2D833E834F8358873FEFC31AD30AAA
:101E8000E30AF30AACCF0FEF1FEF2FEF3FE0B301F0
:101E9000A201C4010E943E04882399F0D501169640
:101EA0004D915D916D917C91199741155105610599
:101EB000710549F093018201C4010E943E04811121
:101EC00002C080E02AC0D50116964D925D926D92B7
:101ED0007C921997332051F0D301C2010196A11DC4
:101EE000B11DF40180839183A283B383F5018789B7
:101EF000908DA18DB28D892B8A2B8B2B69F4D50106
:101F000057964D925D926D927C925A9714968C9151
:101F10001497806814968C9381E02C960FB6F894F1
:101F2000DEBF0FBECDBFDF91CF911F910F91FF900C
:101F3000EF90DF90CF90BF90AF909F908F907F9069
:101F40006F905F904F903F900895089561E0FC017D
:101F500084810E94471C8091970281111092970200
:101F600008958EBD00000DB407FEFDCF8EB5089517
:101F70008FEF0C94B10F0F931F93CF93DF93EB016F
:101F80000E94CD1C8B010E94B80F8F3F49F00E9428
:101F9000CD1C601B710B6C177D07A8F380E001C09E
:101FA00081E0DF91CF911F910F910895CF93DF933F
:101FB000EC018E81882389F08F8198859C012F5FA9
:101FC0003F4F38872F838230924018F40E94B80F19
:101FD000F3CFCE010E94A60F1E82DF91CF9108950C
:101FE0008CBD9DBD0895CF93DF93EC018091970246
:101FF000811109C081E0809397028091A70590919B
:10200000A8050E94F00F60E08C81DF91CF910C94C5
:10201000471CCF92DF92FF920F931F93CF93DF93D2
:1020200000D000D0CDB7DEB76C01F62E29833A83FD
:102030004B835C830E94D60FC6010E94F30F6CE2B3
:1020400071E0C6010E94BB0F8F2D80640E94B10F0A
:1020500008E110E05C814B813A812981DA01C901F4
:10206000002E04C0B695A795979587950A94D2F748
:1020700029833A834B835C830E94B10F0850110976
:1020800029813A814B815C81083F8FEF180731F736
:10209000FF2029F0E8E0FE1204C087E803C085E9CC
:1020A00001C08FEF0E94B10F10E00E94B80FF6013F
:1020B000828787FF04C01F3F11F01F5FF6CF0F908C
:1020C0000F900F900F90DF91CF911F910F91FF9084
:1020D000DF90CF900895AF92BF92CF92DF92EF92B0
:1020E000FF920F931F93CF93DF93EC016901C80117
:1020F000820F931F8130924008F070C08E81882338
:1021000071F088819981AA81BB81481759076A07B4
:102110007B0729F48F819885C816D906B0F54883C6
:1021200059836A837B838B85833039F089E0440F40
:10213000551F661F771F8A95D1F79A01AB0161E1A0
:10214000CE010E940910882319F083E08D8346C0D8
:102150000E94CD1C5B010E94B80F8A878F3F49F413
:102160000E94CD1C6A197B096D327140A0F38FE08B
:1021700003C08E3F31F08DE08D83CE010E94A60F0B
:102180002DC018861F8281E08E838F8198858C15E3
:102190009D0540F40E94B80F8F819885019698871D
:1021A0008F83F3CF6701E00EF11ECE14DF0431F010
:1021B0000E94B80FF60181936F01F7CF8F81988548
:1021C000080F191F18870F838985882319F00115B7
:1021D000124048F0CE010E94D60F05C0CE010E94E9
:1021E000A60F80E001C081E0DF91CF911F910F9198
:1021F000FF90EF90DF90CF90BF90AF9008952F9217
:102200003F924F925F926F927F928F929F92AF9286
:10221000BF92CF92DF92EF92FF920F931F93CF93D3
:10222000DF9300D0CDB7DEB7FC018581882309F4A8
:10223000D9C0848180FFD6C021E02A834389548994
:102240006589768982859385A485B5854817590760
:102250006A077B0709F41A826F013A81832F90E0A5
:10226000DE0111964D013F01B6E06B0E711C892B0A
:1022700009F47DC0D6011A964D915D916D917C91C6
:102280001D975A01B1E0BB22F60125811A012B01ED
:1022900089E056944794379427948A95D1F7838D93
:1022A000948D223061F4FC01828D938DA48DB58DC7
:1022B000BC01CD01620D731D841D951D45C0DC015F
:1022C00014961C9111501221A114B104D1F41111D2
:1022D00018C0452B462B472B51F4F6018789908D6A
:1022E000A18DB28D86839783A087B1870AC046816E
:1022F00057816085718593010E94DE04882309F46B
:1023000071C0F601238D348D86819781A085B185BA
:102310000297A109B109AC01BD01F901058404C00E
:10232000440F551F661F771F0A94D2F7868597853D
:10233000A089B189840F951FA61FB71FBC01CD01CD
:10234000610F711D811D911DD60114962C9126FFE0
:1023500014C000910A0110910B0120910C013091E1
:102360000D01601771078207930751F506C0FA81C6
:10237000FF23C1F1898190E037C040E00E94F5035E
:10238000882381F1F501EF55FD4FD401CF0101966E
:10239000E817F90719F021912D93FACFEFEF8E1A74
:1023A0009E0AF60182859385A485B5850196A11DB7
:1023B000B11D82879387A487B58780E090E057CFCF
:1023C000740101E010E09501AB01BC018091A10412
:1023D0009091A2040E946B10882321F0BFEF8B1A0A
:1023E0009B0ADFCF8FEF9FEF0F900F90DF91CF9180
:1023F0001F910F91FF90EF90DF90CF90BF90AF9023
:102400009F908F907F906F905F904F903F902F9014
:102410000895EF92FF920F931F93CF93DF93EC01F8
:102420007901411551056105710511F482E13CC046
:102430008B85833039F089E0440F551F661F771F65
:102440008A95D1F79A01AB0168E1CE010E9409108B
:10245000882311F084E028C08EEF0E94B10F87011D
:102460008EEFF81AF80181918F010E94B10F0E15BD
:102470001F05C1F78FEF0E94B10F8FEF0E94B10FC0
:102480000E94B80F8A878F71853031F081E18D838A
:10249000CE010E94A60F09C068E572E0CE010E943D
:1024A000BB0F811107C085E18D83CE010E94A60F6D
:1024B00080E013C020E030E0A9016DE0CE010E9471
:1024C0000910811104C00E94B80F882311F084E123
:1024D000EBCFCE010E94A60F81E0DF91CF911F913B
:1024E0000F91FF90EF9008952F923F924F925F923D
:1024F0006F927F928F929F92AF92BF92CF92DF9214
:10250000EF92FF920F931F93CF93DF9300D000D0F1
:10251000CDB7DEB78C015B011A01DC0115968C91F9
:1025200015978130C9F414968C9181FF15C082FFF4
:102530001BC0F80143895489658976898285938512
:10254000A485B58584179507A607B70769F0C80164
:102550000E94000E811108C081E090E0F801938391
:10256000828380E090E039C1610183C0D8015B962D
:102570008D919C915C97FC01248121502A013B01A3
:1025800039E076946794579447943A95D1F7722E30
:1025900074207A01F1E0FF22772009F476C080E010
:1025A00092E08E199F0946018C159D0508F44C0197
:1025B000D8015B962D913C915C9716968D919D91DB
:1025C0000D90BC91A02D0297A109B109F9010584D4
:1025D00004C0880F991FAA1FBB1F0A94D2F7468513
:1025E000578560897189840F951FA61FB71F9C01AD
:1025F000AD01270D311D411D511D29013A018114E5
:1026000032E0930609F088C080910A0190910B0195
:10261000A0910C01B0910D0184159505A605B70593
:1026200059F48FEF9FEFDC0180930A0190930B0127
:10263000A0930C01B0930D019501B301A20180910B
:10264000A1049091A2040E940912882309F484CF66
:102650009EEFB91AC818D908F80182859385A48518
:10266000B585880D991DA11DB11D82879387A4870B
:10267000B587D8011A964D915D916D917C911D970A
:10268000C114D10409F072CF87C0E114F10409F03C
:1026900086CF16964D915D916D917C91199741155C
:1026A00051056105710559F457968D919D910D90D5
:1026B000BC91A02D0097A105B10541F521C09E0157
:1026C0002F5F3F4F0E94DE04882309F44BCF89819E
:1026D0009A81AB81BC81F801238D348DF901278962
:1026E000203129F048EF5FEF6FEF7FE004C048EF43
:1026F0005FEF60E070E084179507A607B70730F03A
:10270000C8010E94A20E81114ACF26CFF80186830C
:102710009783A087B18743CFE114F10429F5D8014D
:102720001A964D915D916D917C911D9753968D9167
:102730009D910D90BC91A02D481759076A077B0702
:1027400098F00E94BA03882309F406CF40920A0148
:1027500050920B0160920C0170920D018091A002C9
:1027600081608093A00208C041E0C301B2010E94D1
:10277000F503882309F4F0CED501F701EF55FD4F9D
:10278000CF01880D991DE817F90719F02D912193B4
:10279000FACFA80CB91C5ECF53968D919D910D90E8
:1027A000BC91A02D84179507A607B70740F4F80140
:1027B000438B548B658B768B848180688483D801AE
:1027C00014968C9183FD02C0C10107C0C8010E940C
:1027D000C20D882309F4C0CEF7CF0F900F900F9051
:1027E0000F90DF91CF911F910F91FF90EF90DF90AD
:1027F000CF90BF90AF909F908F907F906F905F90A1
:102800004F903F902F900895CF93CFB7F894809139
:102810009602811124C0EAEAF0E08491EEEBF0E048
:102820009491E82FF0E0EE0FFF1FEA56FF4FA591BD
:10283000B491EC91E92321F461E08AE00E94471C05
:102840008AE00E94E91C8CB580618CBD8CB58064E7
:102850008CBD8DE00E94E91C8BE00E94E91C8091F8
:1028600096028F5F80939602CFBFCF91089508950F
:10287000CF92DF92EF92FF920F931F93CF93DF934C
:102880006C017A018B01C0E0D0E0CE15DF0589F044
:10289000D8016D918D01D601ED91FC910190F081EF
:1028A000E02DC6010995892B11F47E0102C0219605
:1028B000ECCFC701DF91CF911F910F91FF90EF9067
:1028C000DF90CF900895FC01538D448D252F30E08B
:1028D000842F90E0821B930B541710F0CF9608952D
:1028E00001970895FC01918D828D981761F0828D7A
:1028F000DF01A80FB11D5D968C91928D9F5F9F7334
:10290000928F90E008958FEF9FEF0895FC01918DD5
:10291000828D981731F0828DE80FF11D858D90E042
:1029200008958FEF9FEF0895FC01918D228D892FDF
:1029300090E0805C9F4F821B91098F7399270895C7
:1029400083EB94E00E94941421E0892B09F420E0A9
:10295000822F0895FC01848DDF01A80FB11DA35AB9
:10296000BF4F2C91848D90E001968F739927848FAF
:10297000A689B7892C93A089B1898C9180648C93A6
:10298000938D848D981306C00288F389E02D808191
:102990008F7D80830895EF92FF920F931F93CF93C3
:1029A000DF93EC0181E0888F9B8D8C8D981305C09F
:1029B000E889F989808185FD24C0F62E0B8D10E011
:1029C0000F5F1F4F0F731127E02E8C8DE8120CC084
:1029D0000FB607FCFACFE889F989808185FFF5CF2A
:1029E000CE010E94AA14F1CF8B8DFE01E80FF11DDC
:1029F000E35AFF4FF0820B8FEA89FB898081806266
:102A000007C0EE89FF896083E889F9898081806445
:102A1000808381E090E0DF91CF911F910F91FF9033
:102A2000EF900895CF93DF93EC01888D8823C9F050
:102A3000EA89FB89808185FD05C0A889B9898C91C7
:102A400086FD0FC00FB607FCF5CF808185FFF2CF62
:102A5000A889B9898C9185FFEDCFCE010E94AA1477
:102A6000E7CFDF91CF91089580E090E0892B29F0A6
:102A70000E94A01481110C940000089508950E94F2
:102A80009C25BF92CF92DF92EF92FF920F931F93FC
:102A9000CF93DF9300D000D000D0CDB7DEB7FC01DC
:102AA000208D243009F04CC06A017B018C01B12CCF
:102AB00063E070E08B2D0E943602811103C0F801A3
:102AC000B08E06C08831D9F3B394F4E0BF12F0CFD2
:102AD000F801808D8430A1F196E0E0ECF1E0DE01B8
:102AE000119601900D929A95E1F7F70193819F77E6
:102AF0009C8394819D8395819E83B7016E5F7F4FF8
:102B00000E942B03B601F801808D0E941A03F80180
:102B1000808D90E0982F882746E050E0BE016F5FDF
:102B20007F4F8A5F9B4F0E946401F801128E118EC5
:102B300020E8A60162E0808D0E94F20181E001C0E0
:102B400080E026960FB6F894DEBF0FBECDBFDF91B2
:102B5000CF911F910F91FF90EF90DF90CF90BF909A
:102B60000895CF93DF931F92CDB7DEB7FC01218D7F
:102B7000328D232B49F0BE016F5F7F4F808D0E9405
:102B8000B501898190E002C08FEF9FEF0F90DF9138
:102B9000CF910895CF93DF93FC01218D328D2115C4
:102BA000310519F48FEF9FEF11C0EC014217530765
:102BB00008F0A901888D0E94AE021816190694F734
:102BC000298D3A8D281B390B3A8F298FDF91CF91B0
:102BD00008950F931F93CF93DF931F92CDB7DEB766
:102BE000FC01218D328D232B61F08C0141E050E0FE
:102BF000BE016F5F7F4F808D0E94AE0218161906CE
:102C00001CF08FEF9FEF08C0F801818D928D019726
:102C1000928F818F898190E00F90DF91CF911F91EA
:102C20000F9108950F931F93CF93DF93CDB7DEB726
:102C300028970FB6F894DEBF0FBECDBF8C01F80108
:102C4000818D928D892B49F0D801ED91FC91028400
:102C5000F385E02DC8010995F2CF808D0E947402A2
:102C6000181619065CF548E050E0BE016F5F7F4F13
:102C7000D80158968C910E94AE029C011816190634
:102C8000DCF489819A81AB81BC81F801808B918BC6
:102C9000A28BB38B8D8190E0982F88272E81820F95
:102CA000911D958B848B2F8130E0322F22278885D0
:102CB000280F311D328F218FC90102C080E090E0C2
:102CC00028960FB6F894DEBF0FBECDBFDF91CF912F
:102CD0001F910F910895CF93DF93FC0124813581DB
:102CE000232B71F0FB01DC01CD91DC9160817181BE
:102CF000CE010E94D625009719F08C1B9D0B02C0B7
:102D00008FEF9FEFDF91CF9108950F931F93CF9394
:102D1000DF938C01EB01FC01808191810097B1F080
:102D2000688179816115710579F0428153812C8127
:102D30003D814217530740F00E94C0258C819D8140
:102D4000F8019583848313C00E943A248881998175
:102D5000F801918380838A819B81938382838C8114
:102D60009D8195838483198218821B821A821D8219
:102D70001C82DF91CF911F910F9108950F931F93A4
:102D8000CF93DF93EC0188819981009729F02A8104
:102D90003B812617370788F48B016F5F7F4F0E94B6
:102DA000D224009761F0998388831B830A832C8146
:102DB0003D81232B11F4FC01108281E001C080E0F1
:102DC000DF91CF911F910F910895EF92FF920F9392
:102DD0001F93CF93DF93EC017B018A01BA010E941C
:102DE000BE162881398181110DC02115310519F0D8
:102DF000C9010E943A24198218821D821C821B82FA
:102E00001A8206C01D830C83B701C9010E94C02528
:102E1000CE01DF91CF911F910F91FF90EF90089518
:102E2000CF93DF93EC016115710559F0FB0101901F
:102E30000020E9F73197AF01461B570B0E94E516BA
:102E40000CC088819981009711F00E943A24198260
:102E500018821D821C821B821A82CE01DF91CF91C3
:102E60000895FC01808191810C943A240F931F9363
:102E7000CF93DF93CDB7DEB762970FB6F894DEBF7E
:102E80000FBECDBF8C01CB01F801118210821382DD
:102E900012821582148250E0BE016F5F7F4F0E9444
:102EA000EC22BE016F5F7F4FC8010E94101762962F
:102EB0000FB6F894DEBF0FBECDBFDF91CF911F914B
:102EC0000F910895FC0111821082138212821582E3
:102ED00014826115710551F0FB0101900020E9F7A2
:102EE0003197AF01461B570B0C94E51608956115F9
:102EF000710579F0FB0101900020E9F73197AF01EE
:102F0000461B570BDC01ED91FC910280F381E02D13
:102F1000099480E090E008954F925F926F927F92C3
:102F2000EF92FF920F931F93CF93DF93CDB7DEB74E
:102F3000A1970FB6F894DEBF0FBECDBF7C01FA019A
:102F4000CB0119A2223008F42AE08E010F5D1F4F39
:102F5000422E512C612C712CBF01A30192010E94C1
:102F60006E23F901CA01015011096A3014F4605D41
:102F700001C0695CD8016C93232B242B252B61F7AE
:102F8000B801C7010E947717A1960FB6F894DEBF6B
:102F90000FBECDBFDF91CF911F910F91FF90EF90AA
:102FA0007F906F905F904F9008958F929F92AF9215
:102FB000BF92CF92DF92EF92FF920F931F93CF9326
:102FC000DF937C01EB016C0182E0C80ED11C47014C
:102FD000E5E08E0E911C00E010E0F60141916F01DA
:102FE00050E060E070E02AE0CE010E948C175C01A6
:102FF000E881F9810190F081E02D6EE2CE01099522
:103000008A0D9B1D080F191FC814D90431F7F70149
:10301000458150E060E070E02AE0CE010E948C170C
:10302000800F911FDF91CF911F910F91FF90EF9033
:10303000DF90CF90BF90AF909F908F9008950F93A7
:103040001F93CF93DF93EC010E9477178C0165E704
:1030500072E0CE010E947717800F911FDF91CF9110
:103060001F910F9108951F920F920FB60F92112486
:103070002F933F934F935F936F937F938F939F9380
:10308000AF93BF93EF93FF9383EB94E00E94AA1456
:10309000FF91EF91BF91AF919F918F917F916F9130
:1030A0005F914F913F912F910F900FBE0F901F9006
:1030B00018951F920F920FB60F9211242F938F9392
:1030C0009F93EF93FF93E091C304F091C404808138
:1030D000E091C904F091CA0482FD12C090818091F0
:1030E000CC048F5F8F732091CD04821751F0E09153
:1030F000CC04F0E0ED54FB4F958F8093CC0401C0DD
:103100008081FF91EF919F918F912F910F900FBE32
:103110000F901F9018953FB7F89480919C02909162
:103120009D02A0919E02B0919F0226B5A89B05C06A
:103130002F3F19F00196A11DB11D3FBFBA2FA92F36
:10314000982F8827820F911DA11DB11DBC01CD01B3
:1031500042E0660F771F881F991F4A95D1F708959F
:10316000CF93DF93EC016A8B80910A0190910B0160
:10317000A0910C01B0910D018E879F87A88BB98B10
:1031800080E2689FF0011124EF55FD4F4489558975
:1031900060E070E0BA01552744274F8B588F698F44
:1031A0007A8F828D938DA0E0B0E0482B592B6A2B4B
:1031B0007B2B4F8B588F698F7A8F8385887151F461
:1031C000848D958DA68DB78D8B8B9C8BAD8BBE8B97
:1031D00081E00EC0803111F080E015C09E012D5EAF
:1031E0003F4F8B8D9C8D0E9462058823A9F384E05C
:1031F0008D8381E08C831E821F82188619861A8631
:103200001B861C861D86DF91CF9108958F929F9219
:10321000AF92BF92CF92DF92EF92FF92CF93DF9364
:10322000C82F8EE595E09093A2048093A104CC234F
:1032300069F1C53010F080E00DC140E060E070E061
:10324000CB010E94F5038823B1F320E1C29FC001A6
:1032500011248F569D4FFC01E254FE4F20812F77A1
:1032600051F73C964081518162817381443651050A
:103270006105710500F33497C080D180E280F3804E
:10328000C114D104E104F10421F4D5CFC12CD12C17
:10329000760140E0C701B6010E94F503882359F288
:1032A0008091AC029091AD028115924021F6A091DF
:1032B000B102AA2309F4BFCF6091AF027091B002AE
:1032C0006115710509F4B7CF2091AE02222309F4EC
:1032D000B2CFA0937C0520936E0580E030E0E1E062
:1032E000F0E0C82FAF01082E02C0440F551F0A940A
:1032F000E2F72417350741F0982F8F5F983089F750
:1033000089E08093770597CF809377052091B70266
:103310003091B8022115310519F040E050E008C0A5
:103320002091C5023091C6024091C7025091C80257
:1033300020936F053093700540937105509372058B
:1033400046015701860E971EA11CB11C80927D0577
:1033500090927E05A0927F05B0928005E091B20226
:10336000F091B302F0938305E0938205B0E00E94F0
:103370002C23860E971EA81EB91E8092840590925B
:103380008505A0928605B092870585E0EE0FFF1FA8
:103390008A95E1F7E150FE4FEF2FFF27E6958E0E5D
:1033A0009F1EA11CB11C8092780590927905A09275
:1033B0007A05B0927B052091B4023091B5022115B7
:1033C000310521F0A90160E070E008C04091C10220
:1033D0005091C2026091C3027091C402D701C6012C
:1033E00088199909AA09BB09840F951FA61FB71F41
:1033F00004C0B695A79597958795CA95D2F78093FF
:10340000730590937405A0937505B0937605853F79
:103410002FE09207A105B10510F48CE018C0853F9C
:103420009F4FA105B10510F480E111C08091CD023C
:103430009091CE02A091CF02B091D00280938405EA
:1034400090938505A0938605B093870580E28093CD
:10345000810581E0DF91CF91FF90EF90DF90CF90D9
:10346000BF90AF909F908F900895AF92BF92CF92F0
:10347000DF92EF92FF920F931F93CF93DF93CDB71D
:10348000DEB72B970FB6F894DEBF0FBECDBF7C0121
:10349000CE0101966C01FC0190E28BE08C0D9193C2
:1034A0008E13FDCFDA0120E037E09D91992339F1A9
:1034B0009E3219F0ECE7F0E00AC03A3009F4AAC0F5
:1034C00028E03AE0F2CF3196891709F4A3C084913D
:1034D0008111F9CF321708F49DC08FED890F8E3519
:1034E00008F098C081E0820FF601E20FF11D2FE98C
:1034F000290F2A3108F490529083282FD6CF898142
:10350000803209F487C08B01FB01838D948DF70114
:10351000948F838FFB011682178210861186128684
:10352000138614861586A12CF80182859385A485BF
:10353000B585438954896589768984179507A607D7
:10354000B70708F067C025E0B695A79597958795CA
:103550002A95D1F7F82FFF70BF2EF80185818230B0
:1035600008F458C0C8010E94FF1097FD53C0F8012D
:1035700082859385A485B5854F96A11DB11D82874F
:103580009387A487B587F0E2BF9EC0011124BC01D8
:103590006F557D4F61157105E9F1FB0120812223F3
:1035A000B9F1253EE1F04BE050E0C6010E94A125B3
:1035B000892B09F0B9CF6B2DC7012B960FB6F89464
:1035C000DEBF0FBECDBFDF91CF911F910F91FF9056
:1035D000EF90DF90CF90BF90AF900C94B018A110F7
:1035E00014C0F701B28A40910A0150910B01609119
:1035F0000C0170910D0146875787608B718BFC0120
:10360000EF55FD4F8081882329F0AA24A3948CCF05
:10361000AA2039F380E02B960FB6F894DEBF0FBED8
:10362000CDBFDF91CF911F910F91FF90EF90DF9071
:10363000CF90BF90AF900895DF92EF92FF920F93DB
:103640001F93CF93DF937C018B01EA014617570745
:1036500020F4812F8A01C62FD82F67E772E0C701B7
:103660000E9462178091BF059091C0050817190745
:10367000E0F48C179D0708F4EC01E091BB05F09194
:10368000BC05EC0FFD1FD08010826091BB057091CE
:10369000BC05600F711FC7010E941017E091BB05A8
:1036A000F091BC05EC0FFD1FD082C701DF91CF91D7
:1036B0001F910F91FF90EF90DF9008958F929F924E
:1036C000AF92BF92CF92DF92EF92FF920F931F9330
:1036D000CF93DF93B82E4B018A01A22E68E270E0EF
:1036E0000E943602C82FD0E069E270E08B2D0E9464
:1036F0003602DC2FCC27C82B9E013770CB2CD12C67
:10370000C601880F991FAC0145555B4F6A01FA014C
:1037100080819181820F931FA801420F531F413076
:10372000584098F060E078E07B01E21AF30AA701C4
:10373000B4010E943401A8014E195F09B4016E0D55
:103740007F1DF6018081918102C0A801B4010E9411
:103750003401A1100EC0C00FD11F4D2F68E270E0E0
:103760008B2D0E94D4014C2F69E270E08B2D0E94BA
:10377000D401DF91CF911F910F91FF90EF90DF90D7
:10378000CF90BF90AF909F908F9008959F92AF92EF
:10379000BF92CF92DF92EF92FF920F931F93CF933E
:1037A000DF93982E8B015A01690164E270E00E9458
:1037B0003602E82EF12C65E270E0892D0E94360277
:1037C000FE2CEE24E82AE701C00FD11F9E013770BE
:1037D000E92CF12CC701880F991FAC014D555B4FA7
:1037E0007A01FA0180819181820F931FA9014C0D0A
:1037F0005D1D4130584090F000E018E0021B130BB3
:10380000A801B5010E946401A601401B510BB5013E
:10381000600F711FF7018081918102C0A601B5017F
:103820000E946401CC0DDD1D4D2F64E270E0892DF6
:103830000E94D4014C2F65E270E0892DDF91CF9179
:103840001F910F91FF90EF90DF90CF90BF90AF90BE
:103850009F900C94D401FF920F931F93CF93DF930B
:10386000F82EC0E0D0E08F2D0E9496028C01892BAB
:1038700021F08F2D0E949602EC01C017D10799F715
:10388000CE01DF91CF911F910F91FF90089590E0AD
:10389000FC01E859FF4F3491FC01EC54FF4F249197
:1038A000FC01E056FF4FE491EE2309F43BC03323C3
:1038B00039F1333091F038F43130A9F0323001F57C
:1038C00084B58F7D12C0373091F03830A1F034309C
:1038D000B9F4809180008F7D03C0809180008F7744
:1038E000809380000DC084B58F7784BD09C080911E
:1038F000B0008F7703C08091B0008F7D8093B000BF
:10390000F0E0EE0FFF1FE457FF4FA591B4918FB782
:10391000F894EC91611103C020952E2301C02E2B49
:103920002C938FBF08958F929F92AF92BF92CF92A8
:10393000DF92EF92FF926B017C010E948B184B018A
:103940005C01C114D104E104F104F1F00E948B1870
:10395000DC01CB0188199909AA09BB09883E93406B
:10396000A105B10570F321E0C21AD108E108F10800
:1039700088EE880E83E0981EA11CB11CC114D104EE
:10398000E104F10419F7DDCFFF90EF90DF90CF90C5
:10399000BF90AF909F908F9008952FB7F89460914B
:1039A00098027091990280919A0290919B022FBF88
:1039B0000895CF93C82F462F61E070E00E94D40194
:1039C00061E070E08C2F0E9436028111F9CFCF9117
:1039D000089590E0FC01EC54FF4F2491FC01E05667
:1039E000FF4F8491882399F090E0880F991FFC0184
:1039F000EA56FF4FA591B491FC01E457FF4F859122
:103A000094918FB7F894EC91E22BEC938FBF0895CB
:103A1000CF92DF92EF92FF92CF93DF93CDB7DEB7D5
:103A2000E0970FB6F894DEBF0FBECDBFFC018281D8
:103A30009381A481B5818DA79EA7AFA7B8AB51E0B4
:103A400058ABCDA4DEA4EFA4F8A8CB8EDC8EED8E0F
:103A5000FE8EFB01C280D380E480F580C9A2DAA289
:103A6000EBA2FCA28FA398A7A9A7BAA724E132E0F2
:103A70003C8B2B8B4FEF4D8B4E8B4F8B188E3E8795
:103A80002D875E8F4B8D5C8D6D8D7E8D4F87588B16
:103A9000698B7A8BC986DA86EB86FC863A83298322
:103AA0008B839C83AD83BE836CE271E080E090E009
:103AB0000E94931C0E940414229A80E590E00E94C8
:103AC000F00F60E880E090E00E94930165E58BE1F3
:103AD00090E00E94930165E58AE190E00E949301E5
:103AE0000E94A50FE3EAF4E080E090E491838083F4
:103AF00080E090E69187808780E098E493838283DA
:103B000080E098E69387828780E090E595838483C0
:103B100080E090E79587848780E098E597838683A7
:103B200080E098E79787868780E590E00E94F00F15
:103B300046E050E06EE071E089E090E00E946401B0
:103B400044E050E0BE016D5F7F4F8FE090E00E9447
:103B5000640144E050E0BE01615F7F4F81E090E08E
:103B60000E94640144E050E0BE016B5E7F4F85E03F
:103B700090E00E9464010E94A50F89859A85AB851B
:103B8000BC858093520590935305A0935405B09340
:103B90005505E0960FB6F894DEBF0FBECDBFDF919E
:103BA000CF91FF90EF90DF90CF9008951F920F92EA
:103BB0000FB60F9211242F933F938F939F93AF9340
:103BC000BF938091980290919902A0919A02B0912E
:103BD0009B023091F10523E0230F2D3720F401964D
:103BE000A11DB11D05C026E8230F0296A11DB11D20
:103BF0002093F1058093980290939902A0939A02E2
:103C0000B0939B0280919C0290919D02A0919E0294
:103C1000B0919F020196A11DB11D80939C029093CB
:103C20009D02A0939E02B0939F02BF91AF919F917E
:103C30008F913F912F910F900FBE0F901F9018956D
:103C4000CF93DF93CDB7DEB7CF57D1090FB6F89436
:103C5000DEBF0FBECDBF789484B5826084BD84B5CD
:103C6000816084BD85B5826085BD85B5816085BD77
:103C700080916E00816080936E001092810080912F
:103C800081008260809381008091810081608093B7
:103C90008100809180008160809380008091B100DC
:103CA00084608093B1008091B00081608093B00007
:103CB00080917A00846080937A0080917A0082609B
:103CC00080937A0080917A00816080937A0080915D
:103CD0007A00806880937A001092C1008DE00E9483
:103CE000E91C60E08DE00E94471CE091C304F09164
:103CF000C40482E08083E091BF04F091C00410828C
:103D0000E091C104F091C2048FEC80831092CB0447
:103D1000E091C704F091C80486E08083E091C50477
:103D2000F091C604808180618083E091C504F091A8
:103D3000C604808188608083E091C504F091C60448
:103D4000808180688083E091C504F091C604808101
:103D50008F7D80838AE00E94E91C61E08AE00E94F6
:103D6000471C6CE172E083EB94E00E94771710929D
:103D7000690510926705109264051092630584E04E
:103D8000809362050E94CD1C8B01809162050E9488
:103D9000E91C61E0809162050E94471C0E940414A6
:103DA00082E58093A7051092A8058091A7059091C0
:103DB000A8050E94F00F7AE0F72E8FEF0E94B10F56
:103DC000FA94F110FACF0E94A50F8EE595E00E94BB
:103DD000F30F20E030E0A90160E08EE595E00E945D
:103DE0000910F82E8093680591E0891749F00E9428
:103DF000CD1C601B710B613D774058F381E056C0CC
:103E00002AEA31E040E050E068E08EE595E00E946B
:103E1000091082FF03C0F092690510C064E0F62E1D
:103E20000E94B80F80936805FA94F110F9CF8A3A8E
:103E300011F082E03BC082E08093690580916905C2
:103E4000823021F0C12CD12C760105C0C12CD12C9F
:103E5000E12C50E4F52E20E030E0A90167E38EE587
:103E600095E00E940910A701960169E28EE595E0B0
:103E70000E94091080936805882349F00E94CD1C98
:103E8000601B710B613D774030F388E00FC080917B
:103E90006905823001F520E030E0A9016AE38EE592
:103EA00095E00E940910882341F086E08093630525
:103EB0008EE595E00E94A60F91C00E94B80F807C0D
:103EC000803C19F483E0809369050E94B80F0E943A
:103ED000B80F0E94B80F8EE595E00E94A60F80E50E
:103EE0008093A7051092A80581E00E9406198823F7
:103EF00029F080918D05882341F070C080E00E94F8
:103F00000619882309F46AC0F4CF809181058031B5
:103F100009F582E080938D0510929F051092A0050F
:103F20001092A1051092A2058091820590918305BF
:103F3000A0E0B0E045E0880F991FAA1FBB1F4A957B
:103F4000D1F780939B0590939C05A0939D05B0931A
:103F50009E051EC0803209F041C083E080938D052C
:103F60004091840550918505609186057091870583
:103F700040939F055093A0056093A1057093A205FF
:103F80002BE935E08AE695E00E946205882331F14D
:103F90008AE695E09093A4058093A30581E0809341
:103FA0008C0510928E0510928F051092900510923C
:103FB000910510929205109293051092940510921B
:103FC00095051092960510929705109298051092FB
:103FD000990510929A056AE272E002C06DE272E001
:103FE00083EB94E00E941F1884E192E09A83898316
:103FF0004091040150910501609106017091070103
:104000004B835C836D837E839F8F8E8F80910001B5
:1040100090910101A0910201B091030188A399A39D
:10402000AAA3BBA3BE016F5F7F4FCE014E960E9435
:10403000081D61E08AE00E94471C81EC95E00E9427
:10404000DC0764E372E083EB94E00E941F1898EEB3
:10405000892E93E0992EA12CB12C2CE3C22E21E0C5
:10406000D22E38EE432E33E0532E612C712C81EC8E
:1040700095E00E94B50802E812E0F12C1C821B8238
:104080004D825E826F8278868CE391E09A83898389
:10409000FD86F801219131918F018091C5059091A4
:1040A000C6052817390799F5CE0101960E94D40755
:1040B000873111F08C3159F5CE0101960E94CB0762
:1040C000892B29F18B819C81E7969FAF8EAFE79773
:1040D0008D819E81AF81B885EB968CAF9DAFAEAFE1
:1040E000BFAFEB9789859A85AB85BC85EF968CAF82
:1040F0009DAFAEAFBFAFEF97E596DFAECEAEE59723
:104100008D85C158DF4F8883CF57D04017C0F394B7
:10411000F4E0FF12B3CFE7961FAE1EAEE797EB9623
:104120008CAE9DAEAEAEBFAEEB97E596DFAECEAE3B
:10413000E597C158DF4FF882CF57D040C158DF4FC5
:104140008881CF57D040843009F47AC182E6282E86
:1041500081E0382ECE018D589F4F0E944908882358
:1041600009F46EC1CE018D589F4F0E94CB07892B59
:1041700089F3CE018D589F4F0E94B107F82E009110
:10418000BF051091C00504361105F0F489831A8229
:104190000F5F1F4FB8018BEB95E00E94BE1688237E
:1041A00099F02091BB053091BC058091BF0590919D
:1041B000C005BE016F5F7F4F820F931F0E94C02515
:1041C0001093C0050093BF058AE0F812C3CF6AE3DD
:1041D00072E0CE018D589F4F0E941F186AE472E072
:1041E000CE018D589F4F0E941F18E090BF05F090A0
:1041F000C005F0928F02E0928E0262E672E0CE017C
:1042000001960E946217BE016F5F7F4F8BEB95E0B6
:104210000E946B168C0190938D0280938C02CE01CC
:1042200001960E943117A701B801CE0101960E94A4
:104230001C1BBE016F5F7F4F85EB95E00E948516CA
:10424000CE0101960E94311765E672E0CE0101961B
:104250000E946217BE016F5F7F4F85EB95E00E9461
:104260006B167C0190938B0280938A02CE0101969B
:104270000E943117A701400F511FB801CE010196CE
:104280000E941C1BBE016F5F7F4F8FEA95E00E946A
:104290008516CE0101960E9431178091B305909149
:1042A000B405892B31F162E672E08091AF059091FF
:1042B000B0050E94B725892BE1F468E672E083EB34
:1042C00094E00E941F1861E08DE00E94471C40911D
:1042D000B3055091B4056091AF057091B00583EBC3
:1042E00094E00E94381465E772E083EB94E00E944A
:1042F000771768E875E0CE0101960E943403BE018D
:104300006F5F7F4FCE01CB960E94340319A218A293
:10431000EEEEF1E0FF8FEE8F1BA221968FAD21977D
:10432000811116C06C961FAE1EAE6C97A0968CAE17
:104330009DAEAEAEBFAEA0976A963FAE2EAE6A9768
:10434000E3961FAE1EAEE397A5961FAEA5972CC0B1
:10435000825048E752E0823048F468E875E0CE01C8
:104360004E960E94351A81110EC0DCCFBE01655CED
:104370007F4FCE014E960E94351A882399F2CE01C6
:10438000CB960E94960EBE01625E7F4FCE010196D3
:104390000E94340348E752E0BE016F5F7F4FCE01B9
:1043A000885A9F4F0E948503E396EEADFFADE397D9
:1043B000309741F18581882329F1CE01885A9F4F9A
:1043C0000E949400892B61F0CE01885A9F4F0E9471
:1043D000D300682FCE018D589F4F0E94A109EDCFC9
:1043E000E3968EAD9FADE397009761F00E94960E25
:1043F000E3968EAD9FADE3970E943A24E3961FAEFD
:104400001EAEE39761E070E080E090E00E94931CB4
:10441000CE018D589F4F0E946D0867E772E08BEBCD
:1044200095E00E94101767E772E085EB95E00E9427
:10443000101767E772E08FEA95E00E9410178ACEA6
:104440000E94341514CE89EA95E00E9431178FEA54
:1044500095E00E94311785EB95E00E9431178BEBB8
:1044600095E00C943117EDECF5E084E192E0918356
:1044700080831282138214821582E3EBF4E01382AC
:10448000128248EE53E060E070E044835583668317
:1044900077832AEC31E03183208325EC30E03587C7
:1044A000248724EC30E03787268720EC30E0318BFE
:1044B000208B21EC30E0338B228B22EC30E0358BEB
:1044C000248B26EC30E0378B268B118E128E138EC8
:1044D000148EE3EDF5E091838083128213821482BF
:1044E0001582E9EDF5E091838083128213821482B4
:1044F0001582EFEDF5E0918380831282138214829E
:104500001582E5EEF5E09183808312821382148296
:104510001582E0E5F5E09183808312821382148294
:104520001582E8E5F5E0918380831282138214827C
:104530001582EBEEF5E09183808312821382148260
:104540001582EEE5F5E0158216821186138642E0AB
:1045500050E060E070E0448755876687778713A254
:1045600015A614A62EEE31E033A722A717A6E7EA78
:10457000F5E020E520831182E7ECF5E0918380836C
:104580001282138214821582E1ECF5E0138212820A
:104590008AEF91E09183808380E590E09583848326
:1045A0004AE064E670E08BEB95E00E9436174AE043
:1045B00064E670E085EB95E00E9436174AE064E619
:1045C00070E08FEA95E00E9436174AE062E070E002
:1045D00089EA95E00C9436174532510520F44230B3
:1045E00010F00C94F722FB011082CB010895BB2739
:1045F0004A3031F4992322F4BDE2909581959F4F82
:104600000C940323BB27FB015527AA27880F991F6A
:10461000AA1FA41710F0A41B83955051B9F7A05DF1
:10462000AA3308F0A95DA193009779F7B111B1936E
:104630001192CB010C941C23DC01FC01672F7191BA
:104640007723E1F7329704C07C916D937083629178
:10465000AE17BF07C8F308950E949023A59F900D41
:10466000B49F900DA49F800D911D112408952F9249
:104670003F924F925F926F927F928F929F92AF92F2
:10468000BF92CF92DF92EF92FF920F931F93CF933F
:10469000DF93CDB7DEB7CA1BDB0B0FB6F894DEBFD6
:1046A0000FBECDBF09942A88398848885F846E84FC
:1046B0007D848C849B84AA84B984C884DF80EE8046
:1046C000FD800C811B81AA81B981CE0FD11D0FB64F
:1046D000F894DEBF0FBECDBFED010895A1E21A2E02
:1046E000AA1BBB1BFD010DC0AA1FBB1FEE1FFF1F96
:1046F000A217B307E407F50720F0A21BB30BE40BE6
:10470000F50B661F771F881F991F1A9469F760952C
:104710007095809590959B01AC01BD01CF010895E6
:10472000A29FB001B39FC001A39F700D811D1124F2
:10473000911DB29F700D811D1124911D0895EE0FE2
:10474000FF1F0590F491E02D0994CF93DF93823001
:10475000910510F482E090E0E091F405F091F50508
:1047600020E030E0C0E0D0E0309711F1408151818D
:1047700048175907C0F04817590761F4828193819F
:10478000209719F09B838A832BC09093F505809323
:10479000F40526C02115310519F04217530718F406
:1047A0009A01BE01DF01EF010280F381E02DDCCF31
:1047B0002115310509F1281B390B2430310590F4FE
:1047C00012968D919C9113976115710521F0FB0153
:1047D0009383828304C09093F5058093F405FD01D3
:1047E000329644C0FD01E20FF31F81939193225052
:1047F00031092D933C933AC02091F2053091F30595
:10480000232B41F420911601309117013093F305C9
:104810002093F205209114013091150121153105E5
:1048200041F42DB73EB74091180150911901241B56
:10483000350BE091F205F091F305E217F307A0F4D0
:104840002E1B3F0B2817390778F0AC014E5F5F4FE6
:104850002417350748F04E0F5F1F5093F305409320
:10486000F2058193919302C0E0E0F0E0CF01DF9187
:10487000CF9108950F931F93CF93DF93009709F47F
:104880008CC0FC013297138212820091F4051091C2
:10489000F5050115110581F420813181820F931FE7
:1048A0002091F2053091F3052817390779F5F09337
:1048B000F305E093F20571C0D80140E050E0AE1777
:1048C000BF0750F412962D913C911397AD0121151D
:1048D000310509F1D901F3CF9D01DA013383228338
:1048E00060817181860F971F8217930769F4EC012D
:1048F00028813981260F371F2E5F3F4F3183208358
:104900008A819B8193838283452B29F4F093F5055B
:10491000E093F40542C01396FC93EE931297ED01D9
:10492000499159919E01240F351FE217F30771F445
:1049300080819181840F951F029611969C938E938E
:104940008281938113969C938E931297E0E0F0E01E
:10495000D80112968D919C911397009719F0F80148
:104960008C01F6CF8D919C9198012E5F3F4F820F65
:10497000931F2091F2053091F3052817390769F448
:10498000309729F41092F5051092F40502C01382B5
:1049900012821093F3050093F205DF91CF911F91DE
:1049A0000F910895A0E0B0E0E8EDF4E20C943B2311
:1049B000EC01009721F4CB010E94A523B8C0FC01B3
:1049C000E60FF71F9C0122503109E217F30708F4A4
:1049D000ACC0D9010D911C91119706171707B0F0C3
:1049E0000530110508F49FC0C80104978617970782
:1049F00008F499C002501109061B170B019311937B
:104A00006D937C93CF010E943A248DC05B01A01A64
:104A1000B10A4C01800E911EA091F405B091F505EC
:104A200040E050E0E12CF12C109709F44AC0A815A1
:104A3000B905D1F56D907C901197630182E0C80EA5
:104A4000D11CCA14DB0480F1A3014A195B096A0175
:104A500082E0C80ED11C1296BC9012971396AC91AE
:104A6000B5E0CB16D10440F0B282A38351834083DA
:104A7000D9016D937C930AC00E5F1F4FC301800F55
:104A8000911FF90191838083EB2DFA2FE114F1043A
:104A900031F0D7011396FC93EE93129744C0F09334
:104AA000F505E093F4053FC08D919C91119748174F
:104AB000590708F4AC017D0112960D90BC91A02D10
:104AC000B3CF8091F2059091F30588159905E1F433
:104AD00046175707C8F4809114019091150100976B
:104AE00041F48DB79EB74091180150911901841B74
:104AF000950BE817F907C8F4F093F305E093F20576
:104B0000F901718360830FC0CB010E94A5237C0152
:104B1000009759F0A801BE010E94AE25CE010E9467
:104B20003A24C70104C0CE0102C080E090E0CDB7B6
:104B3000DEB7EEE00C94572381E090E0F8940C94FB
:104B4000F025FB01DC0104C08D910190801921F456
:104B500041505040C8F7881B990B0895FB01DC01B8
:104B600002C001900D9241505040D8F70895FB01CA
:104B7000DC018D91019080190110D9F3990B0895F2
:104B8000FB01DC0101900D920020E1F70895FB018B
:104B9000DC014150504048F001900D920020C9F7CF
:104BA00001C01D9241505040E0F70895FB01519122
:104BB0005523A9F0BF01DC014D9145174111E1F7E3
:104BC00059F4CD010190002049F04D91401541115B
:104BD000C9F3FB014111EFCF81E090E00197089507
:104BE00010E0C5E6D0E004C0FE010E949F2321969C
:0A4BF000C636D107C9F7F894FFCFCD
:104BFA00C0A80AB4FFFFFF0000C0FFFFFFFFDEAD41
:104C0A00BEEFFEED0000F6058000000000003F1533
:104C1A003F15BF0D3F153F153F153F153F153F1572
:104C2A003F153F153F153F1500000000A109C609B1
:104C3A00BF0D2B06CB07B1078A07450A4B0DAD07F7
:104C4A006D0849082306C309C1091806B7090000F7
:104C5A000000B5000701BF0DCB009400D300DD00B2
:104C6A00000000003F153F15BF0D3F153F153F15CA
:104C7A003F153F1500063F153F153F153F153F15D8
:104C8A003F153F153F153F1500000000CB052C06C8
:104C9A00BF0D3E15E105E915B1155D074115480738
:104CAA009C06D50664061216CA15F905E905E50536
:104CBA0001005E00000000000000CB1438146314E9
:104CCA001215941472148614000000003F1538144B
:104CDA00BF0DBE0D3F153F153F1500000000230113
:104CEA003814BF0DBE0D0000000002063009BF0DCA
:104CFA00BE0DDC07000000003F153814BF0DBE0DC5
:104D0A0000000000D517000000003F1553746172BF
:104D1A0074696E672053442E2E006F6B00666169BA
:104D2A006C656400526561647900485454502F31AF
:104D3A002E3120323030204F4B00436F6E74656E37
:104D4A00742D547970653A20746578742F68746D7F
:104D5A006C00414600253200696D2061206675634A
:104D6A0074696F6E000D0A00696E6465782E687446
:024D7A006D00CA
:00000001FF
