:100000000C9466000C948E000C948E000C948E0060
:100010000C948E000C948E000C948E000C948E0028
:100020000C948E000C948E000C948E000C948E0018
:100030000C948E000C948E000C948E000C948E0008
:100040000C9492000C948E000C94081D0C94E21CED
:100050000C948E000C948E000C948E000C948E00E8
:100060000C948E000C948E00000000080002010029
:100070000003040700000000000000007C3C3E5E1E
:100080002B3D3F2F5B5D3B2C2A225C0000000000D3
:10009000250028002B0000000000240027002A0073
:1000A000040404040404040402020202020203031E
:1000B0000303030301020408102040800102040826
:1000C00010200102040810204022302211241FBEFB
:1000D000CFEFD8E0DEBFCDBF12E0A0E0B1E0E4E1B9
:1000E000FCE402C005900D92A238B107D9F725E0D3
:1000F000A2E8B2E001C01D92A63FB207E1F710E00E
:10010000C5E6D0E004C02197FE010E94AC23C436AE
:10011000D107C9F70E94371E0C94FD250C940000EE
:100120000E94A9251F920F920FB60F9211242F93B0
:100130003F938F939F93AF93BF9380919902909138
:100140009A02A0919B02B0919C023091900223E010
:10015000230F2D3720F40196A11DB11D05C026E8FF
:10016000230F0296A11DB11D209390028093990246
:1001700090939A02A0939B02B0939C0280919D025F
:1001800090919E02A0919F02B091A0020196A11DA4
:10019000B11D80939D0290939E02A0939F02B09305
:1001A000A002BF91AF919F918F913F912F910F909E
:1001B0000FBE0F901F901895CF93DF931F92CDB76E
:1001C000DEB76983DC01ED91FC910280F381E02DC3
:1001D00041E050E0BE016F5F7F4F09950F90DF91C6
:1001E000CF910895FC01818D928D0895FC01848941
:1001F0009589089524E132E0FC0131832083FB01DD
:100200004089518962897389FC01428353836483E5
:1002100075830895DC01ED91FC91048CF58DE02D42
:10022000099480E00895CF93DF931F92CDB7DEB796
:100230006983DC01ED91FC910280F381E02D41E0C6
:1002400050E0BE016F5F7F4F09950F90DF91CF9116
:100250000895FC019485FB018485981303C081E017
:10026000943009F480E0089521E0FC018485843015
:1002700009F420E0822F08950895FC0184850C94F0
:100280004312CF93DF931F92CDB7DEB741E050E02A
:10029000BE016F5F7F4FFC0184850E9443121816D8
:1002A00019061CF4898190E002C08FEF9FEF0F9038
:1002B000DF91CF9108950F931F93CF93DF93CDB725
:1002C000DEB728970FB6F894DEBF0FBECDBF8C0106
:1002D000F801818D928D892B49F0D801ED91FC9127
:1002E0000284F385E02DC8010995F2CF808D0E942C
:1002F0000912181619065CF548E050E0BE016F5F60
:100300007F4FD80158968C910E9443129C01181679
:100310001906DCF489819A81AB81BC81F801808B5C
:10032000918BA28BB38B8D8190E0982F88272E81A3
:10033000820F911D958B848B2F8130E0322F2227E5
:100340008885280F311D328F218FC90102C080E0BE
:1003500090E028960FB6F894DEBF0FBECDBFDF91B8
:10036000CF911F910F910895AF92BF92CF92DF92DC
:10037000FF920F931F93CF93DF938C015B01EA01F0
:10038000FC01C688D788F08C80E590E00E94910B34
:100390008F2D0E9493188C179D0720F48F2D0E949B
:1003A0009318EC019E01A501B6018F2D0E942E1815
:1003B0000E94460BF801868997898C0F9D1F978BA9
:1003C000868BCE01DF91CF911F910F91FF90DF902F
:1003D000CF90BF90AF900895CF93FC01C08D80E582
:1003E00090E00E94910B60E270E08C2F0E943A1D19
:1003F00062E070E08C2F0E94CB1184FD19C062E096
:1004000070E08C2F0E94CB1183FF0BC048E162E0AB
:1004100070E08C2F0E9469110E94460B80E090E0F2
:1004200011C00E94460B80E590E00E94910BE0CF46
:1004300040E162E070E08C2F0E9469110E94460B3F
:1004400081E090E0CF910895FF920F931F93CF9397
:10045000DF93FB01DC0157961C921E92569758962B
:10046000FC908281811109C08381811106C0848141
:10047000811103C085818823C1F041155105A9F080
:100480008A01EF0180E590E00E94910BBE016E5F52
:100490007F4F8F2D0E94C012B8018F2D0E94AF1286
:1004A0000E94460B81E090E002C080E090E0DF9186
:1004B000CF911F910F91FF900895CF92DF92EF920D
:1004C000FF920F931F93CF93DF93CDB7DEB7AF9714
:1004D0000FB6F894DEBF0FBECDBF7C016A0104E108
:1004E00012E01A8309831C861B8688EE93E0A0E045
:1004F000B0E08D879E87AF87B88B8CE991E09A87B3
:100500008987188F0F8B198E1A8E1B8E1C8E84E094
:1005100089A31DA30CA31EA21FA218A619A6809131
:10052000530590915405A0915505B09156058CA79F
:100530009DA7AEA7BFA78B839C83AD83BE83188680
:100540001F82AE014C5D5F4FCE0101960E943A06BC
:1005500081309105B1F4D701ED91FC910488F589C2
:10056000E02D1BA70AA78EA19FA1A8A5B9A58CA7BE
:100570009DA7AEA7BFA7A601BE01665D7F4FC701BD
:100580000995AF960FB6F894DEBF0FBECDBFDF91D1
:10059000CF911F910F91FF90EF90DF90CF90089532
:1005A000CF93DF93EC01888D843061F00E9473114A
:1005B000E88DF0E0EE0FFF1FEE57FD4F1182108225
:1005C00084E0888FDF91CF910895EF92FF921F937F
:1005D000CF93DF93FC01208D243011F080E01CC00C
:1005E0007B01EC0110E0812F0E949612811102C064
:1005F000188F05C08831E1F31F5F1430A1F7888D93
:10060000843061F3FD86EC861A8E198E20E0A701F6
:1006100062E00E94871181E0DF91CF911F91FF90EE
:10062000EF9008950F931F93CF93DF931F92CDB751
:10063000DEB78C01DC01ED91FC910084F185E02DA9
:100640000995892B51F0BE016F5F7F4FF8018485BA
:100650000E944A11898190E002C08FEF9FEF0F90B6
:10066000DF91CF911F910F910895FC018485843013
:1006700011F00C94961280E008958F929F92AF92A1
:10068000BF92CF92DF92EF92FF920F931F93CF937F
:10069000DF93CDB7DEB72D970FB6F894DEBF0FBE50
:1006A000CDBF7C0100E010E038EE832E33E0932EC6
:1006B000A12CB12C4CE3C42E41E0D42E1C821B8211
:1006C0008D829E82AF82B886DA82C9820D87CE0182
:1006D00001960E943503811125C0F701448155819F
:1006E00020E061E0802F0E94871180E590E00E9469
:1006F000910B63E070E0802F0E94CB11833129F4CD
:1007000062E070E0802F0E943A1D0E94460BF701C4
:1007100084819581000F111FF801EE57FD4F9183E1
:10072000808305C00F5F1F4F0430110539F62D96E9
:100730000FB6F894DEBF0FBECDBFDF91CF911F91F2
:100740000F91FF90EF90DF90CF90BF90AF909F9070
:100750008F900895CF93DF93FC0124852430D1F04E
:10076000EC010E943503843181F0882371F08831D7
:1007700061F08C3161F4E881F9810084F185E02D2C
:10078000CE01099521E0892B19F420E001C021E078
:10079000822F01C080E0DF91CF910895CF92DF9248
:1007A000EF92FF921F93CF93DF93FC0114851430D7
:1007B000A9F1EC0180E590E00E94910B68E070E007
:1007C000812F0E943A1D0E94460B0E9435196B0131
:1007D0007C01CE010E9435038823B1F061E070E016
:1007E00080E090E00E94FB180E943519DC01CB01EB
:1007F0008C199D09AE09BF09883E9340A105B1053A
:1008000040F38C850E947311EC85F0E0EE0FFF1F22
:10081000EE57FD4F1182108284E08C87DF91CF91DB
:100820001F91FF90EF90DF90CF9008954F925F92CD
:100830006F927F928F929F92AF92BF92CF92DF92F0
:10084000EF92FF921F93CF93DF93CDB7DEB72D9733
:100850000FB6F894DEBF0FBECDBF7C0192E8A92E83
:1008600092E0B92E10E0C12CD12C28EE422E23E0CC
:10087000522E612C712C3CE3832E31E0932E1C828E
:100880001B824D825E826F8278869A8289821D8762
:10089000D5012D913D915D01F70184819581281746
:1008A0003907B1F4CE0101960E943503843169F015
:1008B000CE0101960E9435038C3151F4CE01019690
:1008C0000E942705892B91F003C0CC24C394D12C1E
:1008D0001F5F1430A1F6CD2871F4D701ED91FC9182
:1008E0000084F185E02DC701099505C0CE01019670
:1008F0000E94CE03EDCF2D960FB6F894DEBF0FBE4B
:10090000CDBFDF91CF911F91FF90EF90DF90CF90FF
:10091000BF90AF909F908F907F906F905F904F901F
:1009200008952F923F924F925F926F927F928F9293
:100930009F92AF92BF92CF92DF92EF92FF920F936E
:100940001F93CF93DF93CDB7DEB72E970FB6F894F2
:10095000DEBF0FBECDBF7C016B015A010E941604A1
:1009600002E812E020E0612C712C88EE282E83E052
:10097000382E412C512C9CE3892E91E0992E1C821B
:100980001B822D823E824F8258869A8289822D87D1
:10099000F801419151918F01F701848195814817A8
:1009A000590741F4CE0101962E870E9435032E850A
:1009B0008731E9F02F5F243011F7C3012E960FB66F
:1009C000F894DEBF0FBECDBFDF91CF911F910F9185
:1009D000FF90EF90DF90CF90BF90AF909F908F905F
:1009E0007F906F905F904F903F902F900895A5015A
:1009F000B601CE0101962E870E943005680E791E41
:100A00002E85D8CFCF93DF931F92CDB7DEB7698302
:100A1000DC01ED91FC910280F381E02D41E050E09A
:100A2000BE016F5F7F4F09950F90DF91CF910895C1
:100A3000DC01ED91FC91068CF78DE02D099591E09C
:100A400089270895862F089581E086270895FC015F
:100A50008485843011F00C94091280E090E00895B0
:100A60008F929F92AF92BF92CF92DF92EF92FF92BE
:100A70000F931F93CF93DF936C015B017A01FC010D
:100A8000C485C43041F481E090E0F6019383828311
:100A900080E090E057C08A014130584010F000E0FB
:100AA00018E080E590E00E94910B8C2F0E94931833
:100AB0004C0163E070E08C2F0E94CB11D82F0E9474
:100AC000460BD73111F0DC3121F48016910648F342
:100AD00002C000E010E080E590E00E94910B9801D8
:100AE000A50160E070E08C2F0E942E1860E270E09B
:100AF0008C2F0E943A1D62E070E08C2F0E94CB1177
:100B000084FD14C063E070E08C2F0E94CB11811132
:100B100006C00E94460B8C2F0E947311B4CF0E9416
:100B2000460B80E590E00E94910BE5CF40E162E04A
:100B300070E08C2F0E9469110E94460B012B09F472
:100B4000A2CFC701DF91CF911F910F91FF90EF903E
:100B5000DF90CF90BF90AF909F908F900895CF92ED
:100B6000DF92FF920F931F93CF93DF93FC012485B5
:100B7000243009F072C06A01EB018C01F12C8F2D39
:100B80000E949612811103C0F801F48607C08B7F82
:100B90008831D1F3F394F4E0FF12F1CFF8018485AA
:100BA000843009F45AC020910801309109012F5F67
:100BB0003F4F11F420E030EC3093090120930801FD
:100BC000409108015091090120E061E00E948711E5
:100BD000F801F4848A818F3F51F48B818F3F91F427
:100BE0008C818F3F79F48D818F3F61F433C0811107
:100BF00009C08B81811106C08C81811103C08D8158
:100C0000882341F1C114D10429F180E590E00E94CC
:100C1000910BBE016E5F7F4F8F2D0E94C012B601F7
:100C20008F2D0E94AF1264E070E08F2D0E943A1D5C
:100C30000E94460BC8010E943503873189F061E0AC
:100C400070E080E090E00E94FB18C8010E9435032C
:100C50008111F0CF84E0F801848780E090E002C049
:100C600081E090E0DF91CF911F910F91FF90DF9095
:100C7000CF9008952F923F924F925F926F927F9202
:100C80008F929F92AF92BF92CF92DF92EF92FF929C
:100C90000F931F93CF93DF93CDB7DEB765970FB652
:100CA000F894DEBF0FBECDBF7C016B013A01FB01A2
:100CB00020E080E090E06AE03191332309F140EDDB
:100CC000430F4A3080F4689FA001699F500D1124A2
:100CD000CA01C097830F911D37FD9A958F3F9105EB
:100CE00059F350F313C03E3289F4233079F0D30125
:100CF000A20FB11D12968C932F5F80E090E0DCCFA5
:100D0000233021F4F301858381E021C0F701428182
:100D100053816481758180915B0590915C05A09100
:100D20005D05B0915E05481759076A077B0709F40E
:100D30009EC10E9435198701085F1F4F6F7077278A
:100D40007C5FC8010E94E502813019F080E090E0EC
:100D5000F3C184E192E09A838983F70182819381D0
:100D6000A481B5818B839C83AD83BE8345E350E032
:100D7000BE016F5F7F4FC8010E942402892B19F4C6
:100D8000C12CD12C6FC10E943519F701778366837E
:100D90007627672776277A83698342E050E0BE0191
:100DA0006F5F7F4FC8010E94B40181E090E09E8791
:100DB0008D8742E050E0BE01635F7F4FC8010E9413
:100DC000B40180E091E09E878D8742E050E0BE0153
:100DD000635F7F4FC8010E94B4011E861D8642E0FA
:100DE00050E0BE01635F7F4FC8010E94B40142E042
:100DF00050E0BE01635F7F4FC8010E94B40142E032
:100E000050E0BE01635F7F4FC8010E94B4015601EC
:100E1000F5018081882311F1F6015F018191811133
:100E200015C045018C189D081814190494F48F8678
:100E300041E050E0BE01615F7F4FC8010E94B401F4
:100E4000A401B601C8010E94B40103C08E3229F783
:100E5000E8CF6501FFEFCF1ADF0ADACF1F8641E046
:100E600050E0BE01615F7F4FC8010E94B401C12CF8
:100E7000DD24D394DE86CD8642E050E0BE01635F80
:100E80007F4FC8010E94B401DE86CD8642E050E06B
:100E9000BE01635F7F4FC8010E94B401C8010E9478
:100EA000EC01892B09F46CCF63E0A62EB12CF2E0A3
:100EB0006F0E711C0E9435191B012C01C8010E9484
:100EC0005B0118161906A4F00E943519DC01CB014C
:100ED00082199309A409B50989389341A105B1057F
:100EE000D0F462E370E080E090E00E94FB18E6CF6F
:100EF000F7014281538164817581808D918DA28D2E
:100F0000B38D481759076A077B0741F4848D958D87
:100F1000C59721F406C02FEF3FEF9AC02EEF3FEFA9
:100F200097C0F70181A192A10C970CF4A6C04CE0E8
:100F300050E0BE016F5F7F4FC8010E94D21A8B81C3
:100F400090E0982F88272C81822B9A8B898B29817E
:100F500030E0322F22274A81242BF7014681578126
:100F60004217530709F086C097FF84C08F709270B4
:100F7000892B09F0DEC0CF80D12CDC2CCC248885D5
:100F8000C82AC114D10409F4D1C0812C912C8D81BF
:100F900090E0982F88272E81822B8816990608F4D6
:100FA0006FC0812C912C41E050E0BE016D5E7F4FFF
:100FB000C8010E94D21A8B89982F907C09F093C0A7
:100FC000811186C08B898111EECF42E050E0BE01D5
:100FD000615F7F4FC8010E94D21A42E050E0BE011B
:100FE000635F7F4FC8010E94D21AC8010E94F11AA4
:100FF000C8010E94F11AC8010E94F11AC8010E949A
:10100000F11A42E050E0BE016F5E7F4FC8010E94BE
:10101000D21A8F8598898115914009F069C02D8574
:101020003E853227232732272130310509F060C061
:1010300089899A898115944009F075C044E050E08F
:10104000B301C8012C8B3D8B0E94D21A2C893D899B
:101050006901F1E0AF1AB10829F02FEFC216D206EC
:1010600009F428CFC8010E94D002C60165C08EEFE6
:101070009FEF62C02CEF3FEFEBCF2DEF3FEFE8CFBC
:1010800041E050E0BE01635F7F4FC8010E94D21A69
:101090008D85811113C08D858111F2CFC8010E9409
:1010A000F11AC8010E94F11AC8010E94F11AC80180
:1010B0000E94F11AFFEF8F1A9F0A69CF8D859FEF6B
:1010C000980F9D87882339F3C8010E94F11AF6CF43
:1010D0008B899FEF980F9B8B882309F473CFC801EE
:1010E0000E94F11AF5CFC8010E94F11A1B8A6ACF3B
:1010F000412C512C89899A89982789279827481645
:10110000590638F4C8010E94F11A8FEF481A580A9C
:10111000F1CFEFEF8E1A9E0A8C149D0409F043CF95
:1011200026EF3FEF95CF27EF3FEF92CF2AEF3FEF2C
:101130008FCF2BEF3FEF8CCF65960FB6F894DEBFC5
:101140000FBECDBFDF91CF911F910F91FF90EF9018
:10115000DF90CF90BF90AF909F908F907F906F90D7
:101160005F904F903F902F900895CF92DF92EF9233
:10117000FF920F931F93CF93DF93CDB7DEB7AF9757
:101180000FB6F894DEBF0FBECDBF7C016A0104E14B
:1011900012E01A8309831C861B8688EE93E0A0E088
:1011A000B0E08D879E87AF87B88B8CE991E09A87F6
:1011B0008987188F0F8B198E1A8E1B8E1C8E84E0D8
:1011C00089A31DA30CA31EA21FA218A619A6809175
:1011D000530590915405A0915505B09156058CA7E3
:1011E0009DA7AEA7BFA78B839C83AD83BE831886C4
:1011F0001F82AE014C5D5F4FCE0101960E943A0600
:1012000081309105B1F4D701ED91FC910684F78509
:10121000E02D1BA70AA78EA19FA1A8A5B9A58CA701
:101220009DA7AEA7BFA7A601BE01665D7F4FC70100
:101230000995AF960FB6F894DEBF0FBECDBFDF9114
:10124000CF911F910F91FF90EF90DF90CF90089575
:10125000CF92DF92EF92FF920F931F93CF93DF9382
:10126000EC017A018B016C01C40ED51ECC15DD0595
:10127000A9F00E9448118FE00E94520B8D2F0E940E
:10128000520B8C2F0E94520B219680E00E94520B31
:10129000F80181938F010E944611E8CFC701DF91C9
:1012A000CF911F910F91FF90EF90DF90CF90089515
:1012B000CF92DF92EF92FF920F931F93CF93DF9322
:1012C000EC017A018B016C01C40ED51ECC15DD0535
:1012D000A1F00E94481180EF0E94520B8D2F0E94B6
:1012E000520B8C2F0E94520B2196F80181918F0195
:1012F0000E94520B0E944611E9CFC701DF91CF91A6
:101300001F910F91FF90EF90DF90CF9008951F9362
:10131000CF93DF9300D0CDB7DEB7182F6A839983C0
:101320000E94481180EF0E94520B9981892F0E94E0
:10133000520B812F0E94520B6A81862F0E94520B02
:101340000E94461181E00F900F90DF91CF911F9185
:101350000895089580E090E008958F929F92AF9253
:10136000BF92CF92DF92EF92FF920F931F93CF9392
:10137000DF93EC018D81811102C080E077C00B8981
:101380001C892D893E890417150726073707A8F3FE
:101390006A017B01823029F4CA86DB86EC86FD86F1
:1013A0000DC0C114D104E104F10451F41E821F8266
:1013B000188619861A861B861C861D8681E056C0F3
:1013C0008A849B84AC84BD84EB8DFC8D258530E0C4
:1013D000275F3F4FB501A4014150510961097109CF
:1013E000022E04C076956795579547950A94D2F7D3
:1013F000D701C6010197A109B10904C0B695A79507
:10140000979587952A95D2F784179507A607B7076A
:1014100020F089288A288B2849F44F89588D698DB6
:101420007A8D4E835F836887798704C0841B950B10
:10143000A60BB70B4C015D018E010A5F1F4F811493
:101440009104A104B10409F4A7CF4E815F8168859E
:10145000798598018B8D9C8D0E94EF1391E0891AFC
:101460009108A108B1088111EACF87CFDF91CF9110
:101470001F910F91FF90EF90DF90CF90BF90AF90B2
:101480009F908F9008953F924F925F926F927F92BC
:101490008F929F92AF92BF92CF92DF92EF92FF9284
:1014A0000F931F93CF93DF93CDB7DEB72C970FB673
:1014B000F894DEBF0FBECDBF5C01DC015B968D9062
:1014C0009C905C971696CD90DD90ED90FC901997CE
:1014D000C114D104E104F10439F0BFEFCB1ADB0AE7
:1014E000EB0AFB0A312C07C0F401C080D180E280F6
:1014F000F38033243394F40181859285A385B485E8
:101500009C01AD012F5F3F4F4F4F5F4F29873A87B7
:101510004B875C87260137011D821E821F82188639
:10152000F40181859285A385B4852D813E814F810B
:101530005885281739074A075B0708F063C0898573
:101540009A85AB85BC858C159D05AE05BF0550F40D
:1015500082E0C82ED12CE12CF12C92E0492E512CA6
:10156000612C712C9E012F5F3F4FB701A601C40172
:101570000E94EF13882309F445C089819A81AB81C9
:10158000BC81892B8A2B8B2B41F0260137019FEFE1
:10159000491A590A690A790A05C0C414D504E6042F
:1015A000F70491F02D813E814F8158852F5F3F4F89
:1015B0004F4F5F4F2D833E834F8358873FEFC31AB2
:1015C000D30AE30AF30AACCF0FEF1FEF2FEF3FE090
:1015D000B301A201C4010E944F13882399F0D501E1
:1015E00016964D915D916D917C911997411551051C
:1015F0006105710549F093018201C4010E944F13F6
:10160000811102C080E02AC0D50116964D925D92EC
:101610006D927C921997332051F0D301C20101964B
:10162000A11DB11DF40180839183A283B383F501D1
:101630008789908DA18DB28D892B8A2B8B2B69F494
:10164000D50157964D925D926D927C925A97149661
:101650008C911497806814968C9381E02C960FB629
:10166000F894DEBF0FBECDBFDF91CF911F910F91D8
:10167000FF90EF90DF90CF90BF90AF909F908F90B2
:101680007F906F905F904F903F900895089561E034
:10169000FC0184810E94AF18809192028111109206
:1016A000920208958EBD00000DB407FEFDCF8EB5E9
:1016B00008958FEF0C94520B0F931F93CF93DF93EA
:1016C000EB010E9435198B010E94590B8F3F49F0A5
:1016D0000E943519601B710B6C177D07A8F380E021
:1016E00001C081E0DF91CF911F910F910895CF93B9
:1016F000DF93EC018E81882389F08F8198859C018E
:101700002F5F3F4F38872F838230924018F40E941A
:10171000590BF3CFCE010E94470B1E82DF91CF9170
:1017200008958CBD9DBD0895CF93DF93EC0180910A
:101730009202811109C081E0809392028091A805F4
:101740009091A9050E94910B60E08C81DF91CF916F
:101750000C94AF18CF92DF92FF920F931F93CF9309
:10176000DF9300D000D0CDB7DEB76C01F62E298311
:101770003A834B835C830E94770BC6010E94940BD3
:101780006CE271E0C6010E945C0B8F2D80640E94A8
:10179000520B08E110E05C814B813A812981DA012A
:1017A000C901002E04C0B695A795979587950A9410
:1017B000D2F729833A834B835C830E94520B0850F3
:1017C000110929813A814B815C81083F8FEF18070D
:1017D00031F7FF2029F0E8E0FE1204C087E803C0DB
:1017E00085E901C08FEF0E94520B10E00E94590B57
:1017F000F601828787FF04C01F3F11F01F5FF6CFFD
:101800000F900F900F900F90DF91CF911F910F913C
:10181000FF90DF90CF900895AF92BF92CF92DF926A
:10182000EF92FF920F931F93CF93DF93EC01690127
:10183000C801820F931F8130924008F070C08E81E2
:10184000882371F088819981AA81BB814817590743
:101850006A077B0729F48F819885C816D906B0F5E9
:10186000488359836A837B838B85833039F089E091
:10187000440F551F661F771F8A95D1F79A01AB0158
:1018800061E1CE010E94AA0B882319F083E08D83C9
:1018900046C00E9435195B010E94590B8A878F3F11
:1018A00049F40E9435196A197B096D327140A0F321
:1018B0008FE003C08E3F31F08DE08D83CE010E941A
:1018C000470B2DC018861F8281E08E838F819885FB
:1018D0008C159D0540F40E94590B8F8198850196C7
:1018E00098878F83F3CF6701E00EF11ECE14DF04DB
:1018F00031F00E94590BF60181936F01F7CF8F8170
:101900009885080F191F18870F838985882319F078
:101910000115124048F0CE010E94770B05C0CE01A0
:101920000E94470B80E001C081E0DF91CF911F91C1
:101930000F91FF90EF90DF90CF90BF90AF90089500
:10194000EF92FF920F931F93CF93DF93EC017901F6
:10195000411551056105710511F482E13CC08B858B
:10196000833039F089E0440F551F661F771F8A9531
:10197000D1F79A01AB0168E1CE010E94AA0B88233E
:1019800011F084E028C08EEF0E94520B87018EEF89
:10199000F81AF80181918F010E94520B0E151F0554
:1019A000C1F78FEF0E94520B8FEF0E94520B0E94E3
:1019B000590B8A878F71853031F081E18D83CE019B
:1019C0000E94470B09C068E572E0CE010E945C0BE3
:1019D000811107C085E18D83CE010E94470B80E015
:1019E00013C020E030E0A9016DE0CE010E94AA0BF7
:1019F000811104C00E94590B882311F084E1EBCFC0
:101A0000CE010E94470B81E0DF91CF911F910F9192
:101A1000FF90EF9008958091A1028823A9F1409151
:101A20000A0150910B0160910C0170910D0122EAA5
:101A300032E08091A2049091A3040E94A00C811135
:101A400002C080E008954091930250919402609109
:101A5000950270919602411551056105710591F04D
:101A600022EA32E08091A2049091A3040E94A00C8B
:101A7000882339F3109293021092940210929502E7
:101A8000109296021092A10281E008958F929F9287
:101A9000AF92BF92EF92FF920F931F93CF934B01A0
:101AA0005C01C42F80910A0190910B01A0910C015F
:101AB000B0910D0188159905AA05BB0501F10E9499
:101AC0000B0D811102C080E020C082EAE82E82E086
:101AD000F82E00E012E020E030E0B501A401809192
:101AE000A2049091A3040E940C0C882361F38092BD
:101AF0000A0190920B01A0920C01B0920D0180910D
:101B0000A102C82BC093A10281E0CF911F910F9138
:101B1000FF90EF90BF90AF909F908F9008952F927D
:101B20003F924F925F926F927F928F929F92AF926D
:101B3000BF92CF92DF92EF92FF920F931F93CF93BA
:101B4000DF9300D0CDB7DEB7FC018581882309F48F
:101B5000D9C0848180FFD6C021E02A83438954897B
:101B60006589768982859385A485B5854817590747
:101B70006A077B0709F41A826F013A81832F90E08C
:101B8000DE0111964D013F01B6E06B0E711C892BF1
:101B900009F47DC0D6011A964D915D916D917C91AD
:101BA0001D975A01B1E0BB22F60125811A012B01D4
:101BB00089E056944794379427948A95D1F7838D7A
:101BC000948D223061F4FC01828D938DA48DB58DAE
:101BD000BC01CD01620D731D841D951D45C0DC0146
:101BE00014961C9111501221A114B104D1F41111B9
:101BF00018C0452B462B472B51F4F6018789908D51
:101C0000A18DB28D86839783A087B1870AC0468154
:101C100057816085718593010E94EF13882309F431
:101C200071C0F601238D348D86819781A085B185A1
:101C30000297A109B109AC01BD01F901058404C0F5
:101C4000440F551F661F771F0A94D2F78685978524
:101C5000A089B189840F951FA61FB71FBC01CD01B4
:101C6000610F711D811D911DD60114962C9126FFC7
:101C700014C000910A0110910B0120910C013091C8
:101C80000D01601771078207930751F506C0FA81AD
:101C9000FF23C1F1898190E037C040E00E94460DEA
:101CA000882381F1F501EE55FD4FD401CF01019656
:101CB000E817F90719F021912D93FACFEFEF8E1A5B
:101CC0009E0AF60182859385A485B5850196A11D9E
:101CD000B11D82879387A487B58780E090E057CFB6
:101CE000740101E010E09501AB01BC018091A204F8
:101CF0009091A3040E940C0C882321F0BFEF8B1A53
:101D00009B0ADFCF8FEF9FEF0F900F90DF91CF9166
:101D10001F910F91FF90EF90DF90CF90BF90AF9009
:101D20009F908F907F906F905F904F903F902F90FB
:101D30000895CF93DF93EC018D818823A1F18C81ED
:101D400087FF2DC06E857F858889998941E00E9433
:101D5000460D882341F1EA8980E2E89FF0011124D1
:101D6000DF01AE55BD4F1097F1F08D81823050F4F8
:101D70004B895C896D897E895C964D935D936D93EB
:101D80007C935F978F89988DA98DBA8DEE55FD4F05
:101D9000938F828FB58BA48B8C818F778C83DF910F
:101DA000CF910C940B0D80E0DF91CF910895CF93EC
:101DB000DF93EC010E94990E882311F01D8281E0CF
:101DC000DF91CF9108952F923F924F925F926F9241
:101DD0007F928F929F92AF92BF92CF92DF92EF92BB
:101DE000FF920F931F93CF93DF9300D000D0CDB716
:101DF000DEB78C015B011A01DC0115968C911597F9
:101E00008130C9F414968C9181FF15C082FF1BC0EC
:101E1000F801438954896589768982859385A485EB
:101E2000B58584179507A607B70769F0C8010E9412
:101E3000AD09811108C081E090E0F80193838283AD
:101E400080E090E039C1610183C0D8015B968D913B
:101E50009C915C97FC01248121502A013B0139E0CF
:101E600076946794579447943A95D1F7722E7420DC
:101E70007A01F1E0FF22772009F476C080E092E059
:101E80008E199F0946018C159D0508F44C01D80157
:101E90005B962D913C915C9716968D919D910D903E
:101EA000BC91A02D0297A109B109F901058404C0D4
:101EB000880F991FAA1FBB1F0A94D2F74685578522
:101EC00060897189840F951FA61FB71F9C01AD0102
:101ED000270D311D411D511D29013A01811432E0A8
:101EE000930609F088C080910A0190910B01A0919E
:101EF0000C01B0910D0184159505A605B70559F49F
:101F00008FEF9FEFDC0180930A0190930B01A09368
:101F10000C01B0930D019501B301A2018091A204BF
:101F20009091A3040E94A00C882309F484CF9EEF13
:101F3000B91AC818D908F80182859385A485B58592
:101F4000880D991DA11DB11D82879387A487B58730
:101F5000D8011A964D915D916D917C911D97C11498
:101F6000D10409F072CF87C0E114F10409F086CFE3
:101F700016964D915D916D917C9119974115510582
:101F80006105710559F457968D919D910D90BC9105
:101F9000A02D0097A105B10541F521C09E012F5F3D
:101FA0003F4F0E94EF13882309F44BCF89819A8118
:101FB000AB81BC81F801238D348DF9012789203153
:101FC00029F048EF5FEF6FEF7FE004C048EF5FEF6D
:101FD00060E070E084179507A607B70730F0C801E6
:101FE0000E94430A81114ACF26CFF8018683978346
:101FF000A087B18743CFE114F10429F5D8011A96DF
:102000004D915D916D917C911D9753968D919D9110
:102010000D90BC91A02D481759076A077B0798F0CF
:102020000E940B0D882309F406CF40920A015092BA
:102030000B0160920C0170920D018091A1028160F0
:102040008093A10208C041E0C301B2010E94460D85
:10205000882309F4F0CED501F701EE55FD4FCF01ED
:10206000880D991DE817F90719F02D912193FACFE2
:10207000A80CB91C5ECF53968D919D910D90BC918B
:10208000A02D84179507A607B70740F4F801438BE6
:10209000548B658B768B848180688483D8011496F9
:1020A0008C9183FD02C0C10107C0C8010E94990E36
:1020B000882309F4C0CEF7CF0F900F900F900F90A8
:1020C000DF91CF911F910F91FF90EF90DF90CF9014
:1020D000BF90AF909F908F907F906F905F904F9048
:1020E0003F902F900895CF93DF931F92CDB7DEB727
:1020F000698341E050E0BE016F5F7F4F0E94E30EB5
:102100000F90DF91CF910895CF93CFB7F89480913E
:102110009102811124C0EAEAF0E08491EEEBF0E054
:102120009491E82FF0E0EE0FFF1FEA56FF4FA591C4
:10213000B491EC91E92321F461E08AE00E94AF18A8
:102140008AE00E944A1D8CB580618CBD8CB580648C
:102150008CBD8DE00E944A1D8BE00E944A1D80913B
:1021600091028F5F80939102CFBFCF910895DC01E0
:102170005996ED91FC915A973097B9F083899489DB
:10218000A589B6894285538564857585841B950B21
:10219000A60BB70B811520E89207A105B10538F011
:1021A0008FEF9FE7A0E0B0E0089580E090E0089511
:1021B000CF93DF931F92CDB7DEB76983DC01ED913A
:1021C000FC910280F381E02D41E050E0BE016F5FA1
:1021D0007F4F09950F90DF91CF910895FC01818D7C
:1021E000928D009711F00C94990E0895FC01818D49
:1021F000928D009711F00C948F0D8FEF9FEF089543
:102200000F931F93CF93DF93FC01818D928D0097E5
:10221000B9F0EF010E948F0D8C010F3F8FEF18076F
:1022200091F0898D9A8DFC01428553856485758571
:1022300041505109610971090E94AD09C80105C0E9
:1022400080E090E002C08FEF9FEFDF91CF911F9170
:102250000F910895CF93DF93EC01898D9A8D0097AC
:1022600039F481E090E09B838A8380E090E00BC0AA
:10227000FC01138212820E94E30EE98DFA8D228105
:102280003381232B71F7DF91CF9108952A9A089516
:102290002A9808951F93CF93DF9300D0CDB7DEB770
:1022A000182F80E590E069837A830E94910B21E0EA
:1022B00041E050E069817A81812F0E94C6170E9417
:1022C000460B81E090E00F900F90DF91CF911F912E
:1022D00008959B0190E00496982F8827642F820F21
:1022E000931F0C948709CF93C82F80E590E00E943C
:1022F000910B60E170E08C2F0E943A1D4FEF62E07D
:1023000070E08C2F0E946911CF910C94460BFF92C4
:102310000F931F93CF93DF9300D0CDB7DEB7F82E86
:102320008A012A8369830E94731180E590E00E94EC
:10233000910B2A816981462F422B60E070E08F2D3E
:102340000E9469110115110551F400919702109135
:1023500098020F5F1F4F1093980200939702412F2E
:1023600064E070E08F2D0E946911402F65E070E0FD
:102370008F2D0E94691161E070E08F2D0E943A1D3F
:102380000E94460B81E00F900F90DF91CF911F913B
:102390000F91FF9008950F931F93CF93DF931F9298
:1023A000CDB7DEB790E00496982F88278C01060FF2
:1023B000171F0E9448118FE00E94520B812F0E942C
:1023C000520B802F0E94520B80E00E94520B898397
:1023D0000E94461189810F90DF91CF911F910F913B
:1023E00008951F93CF93DF93182F66E270E00E9449
:1023F000CB11C82FD0E067E270E0812F0E94CB1193
:10240000DC2FCC279E01282BC901DF91CF911F9192
:102410000895FF920F931F93CF93DF93F82E80E5DB
:1024200090E00E94910BC0E0D0E08F2D0E94F1114E
:102430008C01892B21F08F2D0E94F111EC01C01726
:10244000D10799F70E94460BCE01DF91CF911F91E2
:102450000F91FF9008951F93CF93DF93182F60E2A1
:1024600070E00E94CB11C82FD0E061E270E0812FB4
:102470000E94CB11DC2FCC279E01282BC901DF91B4
:10248000CF911F910895AF92BF92CF92DF92EF92BA
:10249000FF921F93CF93DF93182F5B017A0180E5A2
:1024A00090E00E94910BC0E0D0E0812F0E94F111DA
:1024B0006C01892B21F0812F0E94F111EC01CC15C8
:1024C000DD0599F7209799F463E070E0812F0E9471
:1024D000CB118431F1F08823E1F0C1E0D0E08C3100
:1024E00011F4C0E0D0E0D195C195D10912C0EC162D
:1024F000FD060CF4E7011C161D065CF420E0AE019D
:10250000B501812F0E94C61760E470E0812F0E9400
:102510003A1D0E94460BCE01DF91CF911F91FF9093
:10252000EF90DF90CF90BF90AF9008951F93CF931F
:10253000DF931F92CDB7DEB7182F80E590E00E94A1
:10254000910B63E070E0812F0E94CB1189830E9480
:10255000460B89810F90DF91CF911F910895CF9302
:10256000DF93C82FD62F472F60E170E00E946911DA
:102570004D2F61E170E08C2FDF91CF910C946911A8
:1025800090E0982F882744E050E0845F9B4F0C94A4
:102590005809FC01DB0112968D919C91139793834E
:1025A00082838EEE91E09183808314968C911497B0
:1025B000848315968C911597858316964D915D9120
:1025C0006D917C91199746835783608771871A961E
:1025D0004D915D916D917C911D97428753876487E2
:1025E00075871E964D915D916D917C9151974687AF
:1025F0005787608B718B52968C915297828B539632
:102600004D915D916D917C915697438B548B658B69
:10261000768B57964D915D916D917C915A97478B32
:10262000508F618F728F5B968D919C915C97948F88
:10263000838F0895EF92FF920F931F93CF93DF93B1
:10264000EC017B018A011B821A8288EE93E0A0E0F4
:10265000B0E08C839D83AE83BF8382E691E0998353
:1026600088838DE190E00E94B2239A8F898F009732
:1026700079F02DE1F701DC0101900D922A95E1F747
:102680004CE050E0B801CE010C960E94D425188E83
:10269000DF91CF911F910F91FF90EF9008954F928E
:1026A0005F926F927F928F929F92AF92BF92CF92E2
:1026B000DF92EF92FF920F931F93CF93DF93EC0182
:1026C0006A017B012801390142305105610571051C
:1026D00010F480E073C089859A85AB85BC8501962E
:1026E000A11DB11D84179507A607B70790F38B8826
:1026F0009C88AD88BE888F89803129F4BB27AF2D97
:102700009E2D8D2D09C0DB01CA0147E0B695A79526
:10271000979587954A95D1F7880E991EAA1EBB1EDC
:1027200080910A0190910B01A0910C01B0910D01D3
:1027300088169906AA06BB0679F48F898031A1F420
:10274000DD24EE24FF24C601880F991FFC01EE55FD
:10275000FD4F5182408219C040E0C501B4010E9482
:10276000460D8111EACFB5CFE894C7F8DD24EE24F9
:10277000FF24C601880F991F880F991FFC01EE5591
:10278000FD4F40825182628273828091A1028160FA
:102790008093A1028A89823080F08D819E81AF81F1
:1027A000B885880E991EAA1EBB1E80929302909235
:1027B0009402A0929502B092960281E0DF91CF91AF
:1027C0001F910F91FF90EF90DF90CF90BF90AF904F
:1027D0009F908F907F906F905F904F9008958F9211
:1027E0009F92AF92BF92CF92DF92EF92FF920F93A0
:1027F0001F93CF93DF93FC0181859285A385B485D8
:102800000196A11DB11D84179507A607B70710F4FF
:1028100080E05CC083899489A589B689C789C03165
:1028200029F4852E962EA72EBB2409C04A015B01F0
:10283000C7E0B694A79497948794CA95D1F7E90115
:102840006A017B018F01BC01CD01680D791D8A1DD4
:102850009B1D80900A0190900B01A0900C01B090FC
:102860000D01681579058A059B0599F4F80187899A
:102870008031A9F4B701A601552766277727440FB1
:10288000551FFA01EE55FD4F80819181A0E0B0E027
:1028900018C040E00E94460D8111E8CFB9CFB701C2
:1028A000A6014F77552766277727440F551F440FFA
:1028B000551FFA01EE55FD4F80819181A281B381B0
:1028C000BF7088839983AA83BB8381E0DF91CF9116
:1028D0001F910F91FF90EF90DF90CF90BF90AF903E
:1028E0009F908F9008954F925F926F927F92AF92D8
:1028F000BF92CF92DF92EF92FF920F931F93CF93ED
:10290000DF9300D000D0CDB7DEB78C0149835A8366
:102910006B837C835901C12CD12C7601412C82E040
:10292000582E612C712C49815A816B817C819E01CA
:102930002F5F3F4FC8010E94EF13882351F1D3014D
:10294000C201F801058404C0880F991FAA1FBB1F8C
:102950000A94D2F7C80ED91EEA1EFB1E49815A817D
:102960006B817C818789803129F088EF9FEFAFEF01
:10297000BFE004C088EF9FEFA0E0B0E04817590720
:102980006A077B0780F2F501C082D182E282F3827E
:1029900081E00F900F900F900F90DF91CF911F91DA
:1029A0000F91FF90EF90DF90CF90BF90AF907F900E
:1029B0006F905F904F9008953FB7F89480919D027B
:1029C00090919E02A0919F02B091A00226B5A89B73
:1029D00005C02F3F19F00196A11DB11D3FBFBA2FB1
:1029E000A92F982F8827820F911DA11DB11DBC0111
:1029F000CD0142E0660F771F881F991F4A95D1F7D6
:102A00000895CF93DF93EC016A8B80910A01909136
:102A10000B01A0910C01B0910D018E879F87A88BAF
:102A2000B98B80E2689FF0011124EE55FD4F448977
:102A3000558960E070E0BA01552744274F8B588FC5
:102A4000698F7A8F828D938DA0E0B0E0482B592B4F
:102A50006A2B7B2B4F8B588F698F7A8F8385887178
:102A600051F4848D958DA68DB78D8B8B9C8BAD8B02
:102A7000BE8B81E00EC0803111F080E015C09E0158
:102A80002D5E3F4F8B8D9C8D0E9473148823A9F37C
:102A900084E08D8381E08C831E821F8218861986D4
:102AA0001A861B861C861D86DF91CF9108958F9212
:102AB0009F92AF92BF92CF92DF92EF92FF92CF930D
:102AC000DF93C82F8FE595E09093A3048093A20431
:102AD000CC2369F1C53010F080E00DC140E060E02A
:102AE00070E0CB010E94460D8823B1F320E1C29F24
:102AF000C00111248E569D4FFC01E254FE4F2081EF
:102B00002F7751F73C964081518162817381443621
:102B100051056105710500F33497C080D180E280D2
:102B2000F380C114D104E104F10421F4D5CFC12C08
:102B3000D12C760140E0C701B6010E94460D8823E2
:102B400059F28091AD029091AE028115924021F62A
:102B5000A091B202AA2309F4BFCF6091B002709194
:102B6000B1026115710509F4B7CF2091AF0222239C
:102B700009F4B2CFA0937D0520936F0580E030E08B
:102B8000E1E0F0E0C82FAF01082E02C0440F551F4E
:102B90000A94E2F72417350741F0982F8F5F983099
:102BA00089F789E08093780597CF80937805209105
:102BB000B8023091B9022115310519F040E050E01A
:102BC00008C02091C6023091C7024091C8025091BE
:102BD000C90220937005309371054093720550939C
:102BE000730546015701860E971EA11CB11C8092E9
:102BF0007E0590927F05A0928005B0928105E091BC
:102C0000B302F091B402F0938405E0938305B0E041
:102C10000E943923860E971EA81EB91E8092850534
:102C200090928605A0928705B092880585E0EE0F08
:102C3000FF1F8A95E1F7E150FE4FEF2FFF27E69542
:102C40008E0E9F1EA11CB11C8092790590927A0570
:102C5000A0927B05B0927C052091B5023091B6021E
:102C60002115310521F0A90160E070E008C0409114
:102C7000C2025091C3026091C4027091C502D70193
:102C8000C60188199909AA09BB09840F951FA61FB7
:102C9000B71F04C0B695A79597958795CA95D2F7A3
:102CA0008093740590937505A0937605B09377058E
:102CB000853F2FE09207A105B10510F48CE018C004
:102CC000853F9F4FA105B10510F480E111C08091AF
:102CD000CE029091CF02A091D002B091D102809308
:102CE000850590938605A0938705B093880580E2BB
:102CF0008093820581E0DF91CF91FF90EF90DF908C
:102D0000CF90BF90AF909F908F900895AF92BF9259
:102D1000CF92DF92EF92FF920F931F93CF93DF93A7
:102D2000CDB7DEB72B970FB6F894DEBF0FBECDBF81
:102D30007C01CE0101966C01FC0190E28BE08C0DD0
:102D400091938E13FDCFDA0120E037E09D91992316
:102D500039F19E3219F0ECE7F0E00AC03A3009F49C
:102D6000AAC028E03AE0F2CF3196891709F4A3C04F
:102D700084918111F9CF321708F49DC08FED890F2E
:102D80008E3508F098C081E0820FF601E20FF11D48
:102D90002FE9290F2A3108F490529083282FD6CF9B
:102DA0008981803209F487C08B01FB01838D948D6A
:102DB000F701948F838FFB0116821782108611868C
:102DC0001286138614861586A12CF80182859385B8
:102DD000A485B585438954896589768984179507C3
:102DE000A607B70708F067C025E0B695A7959795A1
:102DF00087952A95D1F7F82FFF70BF2EF8018581AE
:102E0000823008F458C0C8010E948F0D97FD53C04E
:102E1000F80182859385A485B5854F96A11DB11DC6
:102E200082879387A487B587F0E2BF9EC0011124F3
:102E3000BC016E557D4F61157105E9F1FB012081E3
:102E40002223B9F1253EE1F04BE050E0C6010E949B
:102E5000AE25892B09F0B9CF6B2DC7012B960FB684
:102E6000F894DEBF0FBECDBFDF91CF911F910F91C0
:102E7000FF90EF90DF90CF90BF90AF900C94011532
:102E8000A11014C0F701B28A40910A0150910B01C0
:102E900060910C0170910D0146875787608B718B93
:102EA000FC01EE55FD4F8081882329F0AA24A394CC
:102EB0008CCFAA2039F380E02B960FB6F894DEBFB2
:102EC0000FBECDBFDF91CF911F910F91FF90EF907B
:102ED000DF90CF90BF90AF900895CF93DF93FC0128
:102EE000448155816081718184EB94E00E94421994
:102EF000EC016FE772E084EB94E00E94261C8C0FDB
:102F00009D1FDF91CF910895DF92EF92FF920F9373
:102F10001F93CF93DF937C018B01EA01461757077C
:102F200020F4812F8A01C62FD82F61E872E0C701F3
:102F30000E94111C8091C0059091C10508171907C6
:102F4000E0F48C179D0708F4EC01E091BC05F091CA
:102F5000BD05EC0FFD1FD08010826091BC05709103
:102F6000BD05600F711FC7010E94BF1BE091BC052A
:102F7000F091BD05EC0FFD1FD082C701DF91CF910D
:102F80001F910F91FF90EF90DF9008958F929F9285
:102F9000AF92BF92CF92DF92EF92FF920F931F9367
:102FA000CF93DF93B82E4B018A01A22E68E270E026
:102FB0000E94CB11C82FD0E069E270E08B2D0E94F7
:102FC000CB11DC2FCC27C82B9E013770CB2CD12CFA
:102FD000C601880F991FAC0144555B4F6A01FA0185
:102FE00080819181820F931FA801420F531F4130AE
:102FF000584098F060E078E07B01E21AF30AA701FC
:10300000B4010E942809A8014E195F09B4016E0D90
:103010007F1DF6018081918102C0A801B4010E9448
:103020002809A1100EC0C00FD11F4D2F68E270E01B
:103030008B2D0E9469114C2F69E270E08B2D0E944C
:103040006911DF91CF911F910F91FF90EF90DF9069
:10305000CF90BF90AF909F908F9008959F92AF9226
:10306000BF92CF92DF92EF92FF920F931F93CF9375
:10307000DF93982E8B015A01690164E270E00E948F
:10308000CB11E82EF12C65E270E0892D0E94CB1166
:10309000FE2CEE24E82AE701C00FD11F9E013770F5
:1030A000E92CF12CC701880F991FAC014C555B4FDF
:1030B0007A01FA0180819181820F931FA9014C0D41
:1030C0005D1D4130584090F000E018E0021B130BEA
:1030D000A801B5010E945809A601401B510BB5017A
:1030E000600F711FF7018081918102C0A601B501B7
:1030F0000E945809CC0DDD1D4D2F64E270E0892D32
:103100000E9469114C2F65E270E0892DDF91CF910B
:103110001F910F91FF90EF90DF90CF90BF90AF90F5
:103120009F900C946911FF920F931F93CF93DF939D
:10313000F82EC0E0D0E08F2D0E942B128C01892B3D
:1031400021F08F2D0E942B12EC01C017D10799F7A7
:10315000CE01DF91CF911F910F91FF90089590E0E4
:10316000FC01E859FF4F3491FC01EC54FF4F2491CE
:10317000FC01E056FF4FE491EE2309F43BC03323FA
:1031800039F1333091F038F43130A9F0323001F5B3
:1031900084B58F7D12C0373091F03830A1F03430D3
:1031A000B9F4809180008F7D03C0809180008F777B
:1031B000809380000DC084B58F7784BD09C0809155
:1031C000B0008F7703C08091B0008F7D8093B000F6
:1031D000F0E0EE0FFF1FE457FF4FA591B4918FB7BA
:1031E000F894EC91611103C020952E2301C02E2B81
:1031F0002C938FBF08958F929F92AF92BF92CF92E0
:10320000DF92EF92FF926B017C010E94DC144B0174
:103210005C01C114D104E104F104F1F00E94DC145A
:10322000DC01CB0188199909AA09BB09883E9340A2
:10323000A105B10570F321E0C21AD108E108F10837
:1032400088EE880E83E0981EA11CB11CC114D10425
:10325000E104F10419F7DDCFFF90EF90DF90CF90FC
:10326000BF90AF909F908F9008952FB7F894609182
:10327000990270919A0280919B0290919C022FBFBB
:1032800008950895CF92DF92EF92FF920F931F93CC
:10329000CF93DF936C017A018B01C0E0D0E0CE15B3
:1032A000DF0589F0D8016D918D01D601ED91FC917A
:1032B0000190F081E02DC6010995892B11F47E0162
:1032C00002C02196ECCFC701DF91CF911F910F91E2
:1032D000FF90EF90DF90CF900895FC01538D448DC7
:1032E000252F30E0842F90E0821B930B541710F0B1
:1032F000CF96089501970895FC01918D828D9817BE
:1033000061F0828DDF01A80FB11D5D968C91928DC9
:103310009F5F9F73928F90E008958FEF9FEF0895C6
:10332000FC01918D828D981731F0828DE80FF11D8F
:10333000858D90E008958FEF9FEF0895FC01918DAA
:10334000228D892F90E0805C9F4F821B91098F73A3
:103350009927089584EB94E00E949E1921E0892B1F
:1033600009F420E0822F0895FC01848DDF01A80F6D
:10337000B11DA35ABF4F2C91848D90E001968F739D
:103380009927848FA689B7892C93A089B1898C91BC
:1033900080648C93938D848D981306C00288F38982
:1033A000E02D80818F7D80830895EF92FF920F93AF
:1033B0001F93CF93DF93EC0181E0888F9B8D8C8DE1
:1033C000981305C0E889F989808185FD24C0F62E0F
:1033D0000B8D10E00F5F1F4F0F731127E02E8C8DA8
:1033E000E8120CC00FB607FCFACFE889F989808192
:1033F00085FFF5CFCE010E94B419F1CF8B8DFE0170
:10340000E80FF11DE35AFF4FF0820B8FEA89FB8929
:103410008081806207C0EE89FF896083E889F9892D
:1034200080818064808381E090E0DF91CF911F9163
:103430000F91FF90EF900895CF93DF93EC01888D6B
:103440008823C9F0EA89FB89808185FD05C0A889A8
:10345000B9898C9186FD0FC00FB607FCF5CF80812E
:1034600085FFF2CFA889B9898C9185FFEDCFCE0178
:103470000E94B419E7CFDF91CF91089580E090E0EA
:10348000892B29F00E94AA1981110C94000008953B
:103490000895BF92CF92DF92EF92FF920F931F9306
:1034A000CF93DF9300D000D000D0CDB7DEB7FC01C2
:1034B000208D243009F04CC06A017B018C01B12CB5
:1034C00063E070E08B2D0E94CB11811103C0F801E5
:1034D000B08E06C08831D9F3B394F4E0BF12F0CFB8
:1034E000F801808D8430A1F196E0E0ECF1E0DE019E
:1034F000119601900D929A95E1F7F70193819F77CC
:103500009C8394819D8395819E83B7016E5F7F4FDD
:103510000E94C012B601F801808D0E94AF12F8011E
:10352000808D90E0982F882746E050E0BE016F5FC5
:103530007F4F8A5F9B4F0E945809F801128E118EAF
:1035400020E8A60162E0808D0E94871181E001C021
:1035500080E026960FB6F894DEBF0FBECDBFDF9198
:10356000CF911F910F91FF90EF90DF90CF90BF9080
:103570000895CF93DF931F92CDB7DEB7FC01218D65
:10358000328D232B49F0BE016F5F7F4F808D0E94EB
:103590004A11898190E002C08FEF9FEF0F90DF9179
:1035A000CF910895CF93DF93FC01218D328D2115AA
:1035B000310519F48FEF9FEF11C0EC01421753074B
:1035C00008F0A901888D0E9443121816190694F775
:1035D000298D3A8D281B390B3A8F298FDF91CF9196
:1035E00008950F931F93CF93DF931F92CDB7DEB74C
:1035F000FC01218D328D232B61F08C0141E050E0E4
:10360000BE016F5F7F4F808D0E944312181619060E
:103610001CF08FEF9FEF08C0F801818D928D01970C
:10362000928F818F898190E00F90DF91CF911F91D0
:103630000F910895CF93DF93FC0124813581232BD3
:1036400071F0FB01DC01CD91DC9160817181CE01D3
:103650000E94E325009719F08C1B9D0B02C08FEF91
:103660009FEFDF91CF9108950F931F93CF93DF9337
:103670008C01EB01FC01808191810097B1F06881A0
:1036800079816115710579F0428153812C813D81E9
:103690004217530740F00E94CD258C819D81F8018F
:1036A0009583848313C00E94472488819981F801FF
:1036B000918380838A819B81938382838C819D8186
:1036C00095838483198218821B821A821D821C8230
:1036D000DF91CF911F910F9108950F931F93CF9377
:1036E000DF93EC0188819981009729F02A813B8141
:1036F0002617370788F48B016F5F7F4F0E94DF2406
:10370000009761F0998388831B830A832C813D8114
:10371000232B11F4FC01108281E001C080E0DF91D5
:10372000CF911F910F910895EF92FF920F931F93E6
:10373000CF93DF93EC017B018A01BA010E946D1BDC
:103740002881398181110DC02115310519F0C90178
:103750000E944724198218821D821C821B821A82B1
:1037600006C01D830C83B701C9010E94CD25CE017F
:10377000DF91CF911F910F91FF90EF900895CF931C
:10378000DF93EC016115710559F0FB0101900020F8
:10379000E9F73197AF01461B570B0E94941B0CC0F1
:1037A00088819981009711F00E944724198218821C
:1037B0001D821C821B821A82CE01DF91CF91089557
:1037C000FC01808191810C9447240F931F93CF9328
:1037D000DF93CDB7DEB762970FB6F894DEBF0FBEAA
:1037E000CDBF8C01CB01F8011182108213821282AD
:1037F0001582148250E0BE016F5F7F4F0E94F92254
:10380000BE016F5F7F4FC8010E94BF1B62960FB65B
:10381000F894DEBF0FBECDBFDF91CF911F910F9106
:103820000895FC0111821082138212821582148283
:103830006115710551F0FB0101900020E9F7319706
:10384000AF01461B570B0C94941B0895611571052D
:1038500079F0FB0101900020E9F73197AF01461B99
:10386000570BDC01ED91FC910280F381E02D09946E
:1038700080E090E008954F925F926F927F92EF9276
:10388000FF920F931F93CF93DF93CDB7DEB7A1972E
:103890000FB6F894DEBF0FBECDBF7C01FA01CB019D
:1038A00019A2223008F42AE08E010F5D1F4F422E2C
:1038B000512C612C712CBF01A30192010E947B232A
:1038C000F901CA01015011096A3014F4605D01C0A8
:1038D000695CD8016C93232B242B252B61F7B8014D
:1038E000C7010E94261CA1960FB6F894DEBF0FBE3A
:1038F000CDBFDF91CF911F910F91FF90EF907F90FF
:103900006F905F904F9008958F929F92AF92BF9269
:10391000CF92DF92EF92FF920F931F93CF93DF939B
:103920007C01EB016C0182E0C80ED11C4701E5E08F
:103930008E0E911C00E010E0F60141916F0150E005
:1039400060E070E02AE0CE010E943B1C5C01E8814F
:10395000F9810190F081E02D6EE2CE0109958A0D8A
:103960009B1D080F191FC814D90431F7F7014581B1
:1039700050E060E070E02AE0CE010E943B1C800F26
:10398000911FDF91CF911F910F91FF90EF90DF90EA
:10399000CF90BF90AF909F908F9008950F931F93FB
:1039A000CF93DF93EC010E94261C8C016FE772E03D
:1039B000CE010E94261C800F911FDF91CF911F9195
:1039C0000F9108951F920F920FB60F9211242F930B
:1039D0003F934F935F936F937F938F939F93AF9397
:1039E000BF93EF93FF9384EB94E00E94B419FF918F
:1039F000EF91BF91AF919F918F917F916F915F9167
:103A00004F913F912F910F900FBE0F901F901895DF
:103A10001F920F920FB60F9211242F938F939F93A3
:103A2000EF93FF93E091C404F091C5048081E0918D
:103A3000CA04F091CB0482FD12C090818091CD0424
:103A40008F5F8F732091CE04821751F0E091CD04E7
:103A5000F0E0EC54FB4F958F8093CD0401C0808142
:103A6000FF91EF919F918F912F910F900FBE0F902B
:103A70001F901895CF93C82F462F61E070E00E94E9
:103A8000691161E070E08C2F0E94CB118111F9CF98
:103A9000CF91089590E0FC01EC54FF4F2491FC017C
:103AA000E056FF4F8491882399F090E0880F991F8A
:103AB000FC01EA56FF4FA591B491FC01E457FF4F7A
:103AC000859194918FB7F894EC91E22BEC938FBF92
:103AD0000895CF92DF92EF92FF92CF93DF93CDB70D
:103AE000DEB7E0970FB6F894DEBF0FBECDBFFC0186
:103AF00082819381A481B5818DA79EA7AFA7B8AB22
:103B000051E058ABCDA4DEA4EFA4F8A8CB8EDC8E98
:103B1000ED8EFE8EFB01C280D380E480F580C9A2C9
:103B2000DAA2EBA2FCA28FA398A7A9A7BAA724E1C7
:103B300032E03C8B2B8B4FEF4D8B4E8B4F8B188E87
:103B40003E872D875E8F4B8D5C8D6D8D7E8D4F8773
:103B5000588B698B7A8BC986DA86EB86FC863A832A
:103B600029838B839C83AD83BE836CE271E080E00C
:103B700090E00E94FB180E948410229A80E590E059
:103B80000E94910B60E880E090E00E94870965E563
:103B90008BE190E00E94870965E58AE190E00E9450
:103BA00087090E94460BE4EAF4E080E090E4918308
:103BB000808380E090E69187808780E098E493831B
:103BC000828380E098E69387828780E090E5958302
:103BD000848380E090E79587848780E098E59783E9
:103BE000868380E098E79787868780E590E00E944B
:103BF000910B46E050E06EE071E089E090E00E94B9
:103C0000580944E050E0BE016D5F7F4F8FE090E0C7
:103C10000E94580944E050E0BE01615F7F4F81E09F
:103C200090E00E94580944E050E0BE016B5E7F4F77
:103C300085E090E00E9458090E94460B89859A858C
:103C4000AB85BC858093530590935405A09355058F
:103C5000B0935605E0960FB6F894DEBF0FBECDBF09
:103C6000DF91CF91FF90EF90DF90CF900895CF93A9
:103C7000DF93CDB7DEB7CF57D1090FB6F894DEBFCB
:103C80000FBECDBF789484B5826084BD84B5816059
:103C900084BD85B5826085BD85B5816085BD809117
:103CA0006E00816080936E0010928100809181008F
:103CB0008260809381008091810081608093810087
:103CC000809180008160809380008091B100846049
:103CD0008093B1008091B00081608093B0008091AA
:103CE0007A00846080937A0080917A008260809369
:103CF0007A0080917A00816080937A0080917A00C6
:103D0000806880937A001092C1008DE00E944A1D65
:103D100060E08DE00E94AF18E091C404F091C5040A
:103D200082E08083E091C004F091C1041082E091B0
:103D3000C204F091C3048FEC80831092CC04E09114
:103D4000C804F091C90486E08083E091C604F09134
:103D5000C704808180618083E091C604F091C7042C
:103D6000808188608083E091C604F091C7048081DF
:103D700080688083E091C604F091C70480818F7DC4
:103D800080838AE00E944A1D61E08AE00E94AF18A9
:103D90006CE172E084EB94E00E94261C10926A05AC
:103DA00010926805109265051092640584E0809376
:103DB00063050E9435198B01809163050E944A1D9D
:103DC00061E0809163050E94AF180E94841082E533
:103DD0008093A8051092A9058091A8059091A90546
:103DE0000E94910B7AE0F72E8FEF0E94520BFA940B
:103DF000F110FACF0E94460B8FE595E00E94940BDC
:103E000020E030E0A90160E08FE595E00E94AA0B78
:103E1000F82E8093690591E0891749F00E943519C1
:103E2000601B710B613D774058F381E056C02AEA70
:103E300031E040E050E068E08FE595E00E94AA0B99
:103E400082FF03C0F0926A0510C064E0F62E0E9463
:103E5000590B80936905FA94F110F9CF8A3A11F061
:103E600082E03BC082E080936A0580916A058230DF
:103E700021F0C12CD12C760105C0C12CD12CE12C14
:103E800050E4F52E20E030E0A90167E38FE595E0EE
:103E90000E94AA0BA701960169E28FE595E00E94B6
:103EA000AA0B80936905882349F00E943519601B8D
:103EB000710B613D774030F388E00FC080916A0557
:103EC000823001F520E030E0A9016AE38FE595E05A
:103ED0000E94AA0B882341F086E0809364058FE559
:103EE00095E00E94470B91C00E94590B807C803C5A
:103EF00019F483E080936A050E94590B0E94590BC4
:103F00000E94590B8FE595E00E94470B80E5809356
:103F1000A8051092A90581E00E945715882329F071
:103F200080918E05882341F070C080E00E94571573
:103F3000882309F46AC0F4CF80918205803109F5A5
:103F400082E080938E051092A0051092A105109238
:103F5000A2051092A3058091830590918405A0E0AD
:103F6000B0E045E0880F991FAA1FBB1F4A95D1F703
:103F700080939C0590939D05A0939E05B0939F050B
:103F80001EC0803209F041C083E080938E054091CD
:103F9000850550918605609187057091880540934D
:103FA000A0055093A1056093A2057093A3052CE989
:103FB00035E08BE695E00E947314882331F18BE69F
:103FC00095E09093A5058093A40581E080938D05ED
:103FD00010928F0510929005109291051092920503
:103FE00010929305109294051092950510929605E3
:103FF00010929705109298051092990510929A05C3
:1040000010929B056AE272E002C06DE272E084EBFE
:1040100094E00E94CE1C84E192E09A8389834091CF
:1040200004015091050160910601709107014B83D5
:104030005C836D837E839F8F8E8F80910001909132
:104040000101A0910201B091030188A399A3AAA341
:10405000BBA3BE016F5F7F4FCE014E960E94691DCC
:1040600061E08AE00E94AF1882EC95E00E943D0377
:1040700064E372E084EB94E00E94CE1C98EE892EFB
:1040800093E0992EA12CB12C2CE3C22E21E0D22E4C
:1040900038EE432E33E0532E612C712C82EC95E0E8
:1040A0000E94160402E812E0F12C1C821B824D8251
:1040B0005E826F8278868CE391E09A838983FD86A5
:1040C000F801219131918F018091C6059091C7052A
:1040D0002817390799F5CE0101960E9435038731DB
:1040E00011F08C3159F5CE0101960E942705892BDC
:1040F00029F18B819C81E7969FAF8EAFE7978D81E9
:104100009E81AF81B885EB968CAF9DAFAEAFBFAF50
:10411000EB9789859A85AB85BC85EF968CAF9DAF73
:10412000AEAFBFAFEF97E596DFAECEAEE5978D852C
:10413000C158DF4F8883CF57D04017C0F394F4E0C5
:10414000FF12B3CFE7961FAE1EAEE797EB968CAE8D
:104150009DAEAEAEBFAEEB97E596DFAECEAEE597C9
:10416000C158DF4FF882CF57D040C158DF4F888108
:10417000CF57D040843009F470C182E6282E81E008
:10418000382ECE018D589F4F0E94AA03882309F430
:1041900064C1CE018D589F4F0E942705892B89F35A
:1041A000CE018D589F4F0E944101F82E0091C0050D
:1041B0001091C10504361105F0F489831A820F5F4E
:1041C0001F4FB8018CEB95E00E946D1B882399F07E
:1041D0002091BC053091BD058091C0059091C1052D
:1041E000BE016F5F7F4F820F931F0E94CD251093FA
:1041F000C1050093C0058AE0F812C3CF6AE372E0FC
:10420000CE018D589F4F0E94CE1C6AE472E0CE0111
:104210008D589F4F0E94CE1C8CEB95E00E946D172D
:10422000E090C005F090C105F0928F02E0928E02FE
:1042300062E672E0CE0101960E94111CBE016F5F22
:104240007F4F8CEB95E00E941A1B8C0190938D029E
:1042500080938C02CE0101960E94E01BA701B80159
:10426000CE0101960E948417BE016F5F7F4F86EBDF
:1042700095E00E94341BCE0101960E94E01B65E68A
:1042800072E0CE0101960E94111CBE016F5F7F4F4C
:1042900086EB95E00E941A1B7C0190938B02809321
:1042A0008A02CE0101960E94E01BA701400F511F18
:1042B000B801CE0101960E948417BE016F5F7F4F47
:1042C00080EB95E00E94341BCE0101960E94E01B1A
:1042D0008091B4059091B505892BC1F062E672E03A
:1042E0008091B0059091B1050E94C425892B71F48D
:1042F00068E672E084EB94E00E94CE1C61E08DE001
:104300000E94AF1880EB95E00E946D1769E875E098
:10431000CE0101960E94C912BE016F5F7F4FCE0190
:10432000CB960E94C91219A218A2EEEEF1E0FF8FFF
:10433000EE8F1BA221968FAD2197811116C06C962E
:104340001FAE1EAE6C97A0968CAE9DAEAEAEBFAE4D
:10435000A0976A963FAE2EAE6A97E3961FAE1EAE4A
:10436000E397A5961FAEA5972CC0825045E752E073
:10437000823048F469E875E0CE014E960E948616B8
:1043800081110EC0DCCFBE01655C7F4FCE014E9621
:104390000E948616882399F2CE01CB960E94D70EF2
:1043A000BE01625E7F4FCE0101960E94C91245E7B1
:1043B00052E0BE016F5F7F4FCE01885A9F4F0E942F
:1043C0001A13E396EEADFFADE397309741F1858187
:1043D000882329F1CE01885A9F4F0E94B710892B5C
:1043E00061F0CE01885A9F4F0E94F610682FCE01CF
:1043F0008D589F4F0E940205EDCFE3968EAD9FAD85
:10440000E397009761F00E94D70EE3968EAD9FADC3
:10441000E3970E944724E3961FAE1EAEE39761E048
:1044200070E080E090E00E94FB18CE018D589F4F15
:104430000E94CE0361E872E08CEB95E00E94BF1B06
:1044400061E872E086EB95E00E94BF1B61E872E0D4
:1044500080EB95E00E94BF1B94CE0E943E1A1ECEB8
:104460008AEA95E00E94E01B80EB95E00E94E01B49
:1044700086EB95E00E94E01B8CEB95E00C94E01B32
:10448000EEECF5E084E192E0918380831282138266
:1044900014821582E4EBF4E01382128248EE53E0BA
:1044A00060E070E044835583668377832AEC31E0D3
:1044B0003183208325EC30E03587248724EC30E0FD
:1044C0003787268720EC30E0318B208B21EC30E0E1
:1044D000338B228B22EC30E0358B248B26EC30E0C2
:1044E000378B268B118E128E138E148EE4EDF5E031
:1044F000918380831282138214821582EAEDF5E0A3
:10450000918380831282138214821582E0EEF5E09B
:10451000918380831282138214821582E6EEF5E085
:10452000918380831282138214821582E1E5F5E083
:10453000918380831282138214821582E9E5F5E06B
:10454000918380831282138214821582ECEEF5E04F
:10455000918380831282138214821582EFE5F5E045
:10456000158216821186138642E050E060E070E00A
:10457000448755876687778713A215A614A62EEE63
:1045800031E033A722A717A6E8EAF5E020E520836B
:104590001182E8ECF5E09183808312821382148209
:1045A0001582E2ECF5E0138212828AEF91E09183AA
:1045B000808380E590E0958384834AE064E670E040
:1045C0008CEB95E00E94E51B4AE064E670E086EB28
:1045D00095E00E94E51B4AE064E670E080EB95E020
:1045E0000E94E51B4AE062E070E08AEA95E00C94E4
:1045F000E51B4532510520F4423010F00C940423A1
:10460000FB011082CB010895BB274A3031F4992376
:1046100022F4BDE2909581959F4F0C941023BB2707
:10462000FB015527AA27880F991FAA1FA41710F06E
:10463000A41B83955051B9F7A05DAA3308F0A95D7A
:10464000A193009779F7B111B1931192CB010C941A
:104650002923DC01FC01672F71917723E1F7329761
:1046600004C07C916D9370836291AE17BF07C8F34D
:1046700008950E949D23A59F900DB49F900DA49F27
:10468000800D911D112408952F923F924F925F92B9
:104690006F927F928F929F92AF92BF92CF92DF9252
:1046A000EF92FF920F931F93CF93DF93CDB7DEB7B7
:1046B000CA1BDB0B0FB6F894DEBF0FBECDBF09944B
:1046C0002A88398848885F846E847D848C849B84A2
:1046D000AA84B984C884DF80EE80FD800C811B81B0
:1046E000AA81B981CE0FD11D0FB6F894DEBF0FBEDF
:1046F000CDBFED010895A1E21A2EAA1BBB1BFD013F
:104700000DC0AA1FBB1FEE1FFF1FA217B307E407B0
:10471000F50720F0A21BB30BE40BF50B661F771F08
:10472000881F991F1A9469F76095709580959095E8
:104730009B01AC01BD01CF010895A29FB001B39FC1
:10474000C001A39F700D811D1124911DB29F700D9A
:10475000811D1124911D0895EE0FFF1F0590F49106
:10476000E02D0994CF93DF938230910510F482E01D
:1047700090E0E091F405F091F50520E030E0C0E034
:10478000D0E0309711F14081518148175907C0F0AE
:104790004817590761F482819381209719F09B8310
:1047A0008A832BC09093F5058093F40526C02115CC
:1047B000310519F04217530718F49A01BE01DF01C1
:1047C000EF010280F381E02DDCCF2115310509F1E5
:1047D000281B390B2430310590F412968D919C9151
:1047E00013976115710521F0FB019383828304C047
:1047F0009093F5058093F405FD01329644C0FD01C8
:10480000E20FF31F81939193225031092D933C9332
:104810003AC02091F2053091F305232B41F4209109
:104820001601309117013093F3052093F205209182
:104830001401309115012115310541F42DB73EB712
:104840004091180150911901241B350BE091F2059C
:10485000F091F305E217F307A0F42E1B3F0B281786
:10486000390778F0AC014E5F5F4F2417350748F0E9
:104870004E0F5F1F5093F3054093F2058193919380
:1048800002C0E0E0F0E0CF01DF91CF9108950F93F7
:104890001F93CF93DF93009709F48CC0FC013297EC
:1048A000138212820091F4051091F505011511058E
:1048B00081F420813181820F931F2091F205309184
:1048C000F3052817390779F5F093F305E093F2051E
:1048D00071C0D80140E050E0AE17BF0750F4129607
:1048E0002D913C911397AD012115310509F1D901A5
:1048F000F3CF9D01DA013383228360817181860FBA
:10490000971F8217930769F4EC0128813981260FDC
:10491000371F2E5F3F4F318320838A819B81938392
:104920008283452B29F4F093F505E093F40542C00A
:104930001396FC93EE931297ED01499159919E01C4
:10494000240F351FE217F30771F480819181840FE2
:10495000951F029611969C938E9382819381139654
:104960009C938E931297E0E0F0E0D80112968D911F
:104970009C911397009719F0F8018C01F6CF8D9157
:104980009C9198012E5F3F4F820F931F2091F2055B
:104990003091F3052817390769F4309729F41092FC
:1049A000F5051092F40502C0138212821093F305EC
:1049B0000093F205DF91CF911F910F910895A0E030
:1049C000B0E0E5EEF4E20C944823EC01009721F40A
:1049D000CB010E94B223B8C0FC01E60FF71F9C0177
:1049E00022503109E217F30708F4ACC0D9010D9148
:1049F0001C91119706171707B0F00530110508F440
:104A00009FC0C80104978617970708F499C0025001
:104A10001109061B170B019311936D937C93CF0122
:104A20000E9447248DC05B01A01AB10A4C01800E80
:104A3000911EA091F405B091F50540E050E0E12C05
:104A4000F12C109709F44AC0A815B905D1F56D905D
:104A50007C901197630182E0C80ED11CCA14DB045C
:104A600080F1A3014A195B096A0182E0C80ED11CDA
:104A70001296BC9012971396AC91B5E0CB16D10468
:104A800040F0B282A38351834083D9016D937C931C
:104A90000AC00E5F1F4FC301800F911FF901918360
:104AA0008083EB2DFA2FE114F10431F0D701139636
:104AB000FC93EE93129744C0F093F505E093F40550
:104AC0003FC08D919C9111974817590708F4AC018C
:104AD0007D0112960D90BC91A02DB3CF8091F2056F
:104AE0009091F30588159905E1F446175707C8F426
:104AF0008091140190911501009741F48DB79EB7F4
:104B00004091180150911901841B950BE817F90782
:104B1000C8F4F093F305E093F205F9017183608323
:104B20000FC0CB010E94B2237C01009759F0A8016D
:104B3000BE010E94BB25CE010E944724C70104C0CC
:104B4000CE0102C080E090E0CDB7DEB7EEE00C947D
:104B5000642381E090E0F8940C94FD25FB01DC01D6
:104B600004C08D910190801921F441505040C8F744
:104B7000881B990B0895FB01DC0102C001900D9286
:104B800041505040D8F70895FB01DC018D91019010
:104B900080190110D9F3990B0895FB01DC010190F4
:104BA0000D920020E1F70895FB01DC0141505040D7
:104BB00048F001900D920020C9F701C01D924150AC
:104BC0005040E0F70895FB0151915523A9F0BF0132
:104BD000DC014D9145174111E1F759F4CD010190E8
:104BE000002049F04D9140154111C9F3FB014111DD
:104BF000EFCF81E090E00197089510E0C5E6D0E0A6
:104C000004C0FE010E94AC232196C636D107C9F725
:044C1000F894FFCF46
:104C1400C0A80AB4FFFFFF0000C0FFFFFFFFDEAD26
:104C2400BEEFFEED0000F6058000000000009000DD
:104C34009000AA09900090009000900090009000CD
:104C440090009000900090000000000002053005E4
:104C5400AA093C01270541011203AF05B5083D012E
:104C6400CE03AA03340124052205290118050000F6
:104C74000000D8102A11AA09EE10B710F61000117E
:104C84000000000090009000AA099000900090009D
:104C9400900090001101900090009000900090000E
:104CA400900090009000900000000000DC00B4012F
:104CB400AA09481AF200F11AB91AE502491AD002EF
:104CC40024025D02EC015B01D21A0A01FA00F6002B
:104CD40001005E00000000000000D51942196D19A2
:104CE4001C1A9E197C1990190000000090004219AA
:104CF400AA09A90990009000900000000000731018
:104D04004219AA09A9090000000013019104AA0983
:104D1400A9093D030000000090004219AA09A9094D
:104D240000000000841C00000000900053746172B5
:104D340074696E672053442E2E006F6B00666169A0
:104D44006C656400526561647900485454502F3195
:104D54002E3120323030204F4B00436F6E74656E1D
:104D6400742D547970653A20746578742F68746D65
:104D74006C00414600253200696D20612066756330
:104D840074696F6E00696E6465782E68746D000DC9
:024D94000A0013
:00000001FF
